{
  "contractName": "RouletteSubscription",
  "abi": [
    {
      "inputs": [],
      "stateMutability": "nonpayable",
      "type": "constructor"
    },
    {
      "inputs": [
        {
          "internalType": "address",
          "name": "have",
          "type": "address"
        },
        {
          "internalType": "address",
          "name": "want",
          "type": "address"
        }
      ],
      "name": "OnlyCoordinatorCanFulfill",
      "type": "error"
    },
    {
      "anonymous": false,
      "inputs": [
        {
          "indexed": true,
          "internalType": "address",
          "name": "previousOwner",
          "type": "address"
        },
        {
          "indexed": true,
          "internalType": "address",
          "name": "newOwner",
          "type": "address"
        }
      ],
      "name": "OwnershipTransferredSuccessfully",
      "type": "event"
    },
    {
      "anonymous": false,
      "inputs": [
        {
          "indexed": false,
          "internalType": "address",
          "name": "depositor",
          "type": "address"
        },
        {
          "indexed": false,
          "internalType": "uint256",
          "name": "amount",
          "type": "uint256"
        }
      ],
      "name": "Recieved",
      "type": "event"
    },
    {
      "anonymous": false,
      "inputs": [
        {
          "indexed": false,
          "internalType": "address",
          "name": "user",
          "type": "address"
        }
      ],
      "name": "RegisterUser",
      "type": "event"
    },
    {
      "anonymous": false,
      "inputs": [
        {
          "indexed": false,
          "internalType": "uint256",
          "name": "requestId",
          "type": "uint256"
        },
        {
          "indexed": false,
          "internalType": "uint256",
          "name": "randomWords",
          "type": "uint256"
        }
      ],
      "name": "RequestFulfilled",
      "type": "event"
    },
    {
      "anonymous": false,
      "inputs": [
        {
          "indexed": false,
          "internalType": "uint256",
          "name": "requestId",
          "type": "uint256"
        }
      ],
      "name": "RequestSent",
      "type": "event"
    },
    {
      "anonymous": false,
      "inputs": [
        {
          "indexed": false,
          "internalType": "address",
          "name": "casino",
          "type": "address"
        },
        {
          "indexed": false,
          "internalType": "uint256",
          "name": "amount",
          "type": "uint256"
        }
      ],
      "name": "Withdrawn",
      "type": "event"
    },
    {
      "anonymous": false,
      "inputs": [
        {
          "indexed": false,
          "internalType": "uint256",
          "name": "gameId",
          "type": "uint256"
        },
        {
          "indexed": false,
          "internalType": "uint256[]",
          "name": "betPlaced",
          "type": "uint256[]"
        },
        {
          "indexed": false,
          "internalType": "uint256",
          "name": "betValue",
          "type": "uint256"
        },
        {
          "indexed": false,
          "internalType": "address payable",
          "name": "user",
          "type": "address"
        }
      ],
      "name": "betPlaced",
      "type": "event"
    },
    {
      "anonymous": false,
      "inputs": [
        {
          "indexed": false,
          "internalType": "uint256",
          "name": "id",
          "type": "uint256"
        },
        {
          "indexed": false,
          "internalType": "uint256[]",
          "name": "bet",
          "type": "uint256[]"
        },
        {
          "indexed": false,
          "internalType": "uint256",
          "name": "betAmount",
          "type": "uint256"
        },
        {
          "indexed": false,
          "internalType": "address payable",
          "name": "user",
          "type": "address"
        },
        {
          "indexed": false,
          "internalType": "bool",
          "name": "win",
          "type": "bool"
        },
        {
          "indexed": false,
          "internalType": "uint256",
          "name": "winnings",
          "type": "uint256"
        }
      ],
      "name": "gameFinished",
      "type": "event"
    },
    {
      "inputs": [
        {
          "internalType": "uint256",
          "name": "",
          "type": "uint256"
        }
      ],
      "name": "Games",
      "outputs": [
        {
          "internalType": "uint256",
          "name": "gameId",
          "type": "uint256"
        },
        {
          "internalType": "uint256",
          "name": "betAmount",
          "type": "uint256"
        },
        {
          "internalType": "address payable",
          "name": "user",
          "type": "address"
        },
        {
          "internalType": "bool",
          "name": "win",
          "type": "bool"
        },
        {
          "internalType": "uint256",
          "name": "winnings",
          "type": "uint256"
        },
        {
          "internalType": "bool",
          "name": "gameDone",
          "type": "bool"
        },
        {
          "internalType": "uint256",
          "name": "requestId",
          "type": "uint256"
        },
        {
          "internalType": "uint256",
          "name": "gameResult",
          "type": "uint256"
        }
      ],
      "stateMutability": "view",
      "type": "function"
    },
    {
      "inputs": [
        {
          "internalType": "uint256",
          "name": "",
          "type": "uint256"
        }
      ],
      "name": "LinkRequests",
      "outputs": [
        {
          "internalType": "uint256",
          "name": "requestId",
          "type": "uint256"
        },
        {
          "internalType": "bool",
          "name": "exists",
          "type": "bool"
        },
        {
          "internalType": "bool",
          "name": "requestFulfilled",
          "type": "bool"
        },
        {
          "internalType": "uint256",
          "name": "randomWord",
          "type": "uint256"
        }
      ],
      "stateMutability": "view",
      "type": "function"
    },
    {
      "inputs": [
        {
          "internalType": "uint256",
          "name": "",
          "type": "uint256"
        }
      ],
      "name": "approvedAddresses",
      "outputs": [
        {
          "internalType": "address payable",
          "name": "",
          "type": "address"
        }
      ],
      "stateMutability": "view",
      "type": "function"
    },
    {
      "inputs": [],
      "name": "casinoAddress",
      "outputs": [
        {
          "internalType": "address",
          "name": "",
          "type": "address"
        }
      ],
      "stateMutability": "view",
      "type": "function"
    },
    {
      "inputs": [],
      "name": "gameId",
      "outputs": [
        {
          "internalType": "uint256",
          "name": "",
          "type": "uint256"
        }
      ],
      "stateMutability": "view",
      "type": "function"
    },
    {
      "inputs": [],
      "name": "maxStake",
      "outputs": [
        {
          "internalType": "uint128",
          "name": "",
          "type": "uint128"
        }
      ],
      "stateMutability": "view",
      "type": "function"
    },
    {
      "inputs": [],
      "name": "minStake",
      "outputs": [
        {
          "internalType": "uint128",
          "name": "",
          "type": "uint128"
        }
      ],
      "stateMutability": "view",
      "type": "function"
    },
    {
      "inputs": [
        {
          "internalType": "uint256",
          "name": "requestId",
          "type": "uint256"
        },
        {
          "internalType": "uint256[]",
          "name": "randomWords",
          "type": "uint256[]"
        }
      ],
      "name": "rawFulfillRandomWords",
      "outputs": [],
      "stateMutability": "nonpayable",
      "type": "function"
    },
    {
      "inputs": [
        {
          "internalType": "uint256[]",
          "name": "_numbersSelected",
          "type": "uint256[]"
        }
      ],
      "name": "placeBet",
      "outputs": [],
      "stateMutability": "payable",
      "type": "function"
    },
    {
      "inputs": [
        {
          "internalType": "uint256",
          "name": "_gameId",
          "type": "uint256"
        }
      ],
      "name": "endGame",
      "outputs": [],
      "stateMutability": "nonpayable",
      "type": "function"
    },
    {
      "inputs": [],
      "name": "AddFunds",
      "outputs": [],
      "stateMutability": "payable",
      "type": "function"
    },
    {
      "inputs": [
        {
          "internalType": "uint256",
          "name": "_withdrawAmount",
          "type": "uint256"
        }
      ],
      "name": "withdrawFundsWei",
      "outputs": [],
      "stateMutability": "nonpayable",
      "type": "function"
    },
    {
      "inputs": [],
      "name": "withdrawAllFunds",
      "outputs": [],
      "stateMutability": "nonpayable",
      "type": "function"
    },
    {
      "inputs": [
        {
          "internalType": "address payable",
          "name": "_address",
          "type": "address"
        }
      ],
      "name": "registerUser",
      "outputs": [],
      "stateMutability": "nonpayable",
      "type": "function"
    },
    {
      "inputs": [
        {
          "internalType": "address payable",
          "name": "_address",
          "type": "address"
        }
      ],
      "name": "unregisterUser",
      "outputs": [],
      "stateMutability": "nonpayable",
      "type": "function"
    },
    {
      "inputs": [
        {
          "internalType": "address payable",
          "name": "_newOwner",
          "type": "address"
        }
      ],
      "name": "changeOwner",
      "outputs": [],
      "stateMutability": "nonpayable",
      "type": "function"
    },
    {
      "inputs": [
        {
          "internalType": "uint256",
          "name": "_requestId",
          "type": "uint256"
        }
      ],
      "name": "getChainLinkStatus",
      "outputs": [
        {
          "internalType": "bool",
          "name": "",
          "type": "bool"
        }
      ],
      "stateMutability": "view",
      "type": "function"
    },
    {
      "inputs": [
        {
          "internalType": "uint256",
          "name": "_gameId",
          "type": "uint256"
        }
      ],
      "name": "getGameStatus",
      "outputs": [
        {
          "internalType": "bool",
          "name": "",
          "type": "bool"
        }
      ],
      "stateMutability": "view",
      "type": "function"
    }
  ],
  "bytecode": "0x60a06040526104bf600460006101000a81548167ffffffffffffffff021916908367ffffffffffffffff16021790555034801561003b57600080fd5b50738103b0a8a00be2ddc778e6e7eaa21791cd3646258073ffffffffffffffffffffffffffffffffffffffff1660808173ffffffffffffffffffffffffffffffffffffffff168152505050738103b0a8a00be2ddc778e6e7eaa21791cd364625600460086101000a81548173ffffffffffffffffffffffffffffffffffffffff021916908373ffffffffffffffffffffffffffffffffffffffff160217905550336000806101000a81548173ffffffffffffffffffffffffffffffffffffffff021916908373ffffffffffffffffffffffffffffffffffffffff16021790555060006002819055506509184e72a000600160006101000a8154816fffffffffffffffffffffffffffffffff02191690836fffffffffffffffffffffffffffffffff160217905550670de0b6b3a7640000600160106101000a8154816fffffffffffffffffffffffffffffffff02191690836fffffffffffffffffffffffffffffffff1602179055506080516132fc6101c56000396000818161045701526104ab01526132fc6000f3fe6080604052600436106101095760003560e01c80638421ea1511610095578063a6f9dae111610064578063a6f9dae114610364578063d0399bb81461038d578063d7c81b55146103b6578063ea1b28e0146103e1578063f72ea9dc1461040c57610109565b80638421ea15146102b457806395bf190e146102f45780639cd0948314610331578063a65517841461033b57610109565b80632983c911116100dc5780632983c911146101c657806329d4f4c314610203578063375b3c0a1461024757806349649fbf146102725780636ade21e41461028957610109565b80630f1bf4541461010e5780631fe543e31461014b5780632199d5cd1461017457806321f2ca3b1461019d575b600080fd5b34801561011a57600080fd5b5061013560048036038101906101309190611e96565b610428565b6040516101429190611ede565b60405180910390f35b34801561015757600080fd5b50610172600480360381019061016d9190612052565b610455565b005b34801561018057600080fd5b5061019b6004803603810190610196919061210c565b610515565b005b3480156101a957600080fd5b506101c460048036038101906101bf919061210c565b6106dd565b005b3480156101d257600080fd5b506101ed60048036038101906101e89190611e96565b610846565b6040516101fa9190611ede565b60405180910390f35b34801561020f57600080fd5b5061022a60048036038101906102259190611e96565b610873565b60405161023e989796959493929190612157565b60405180910390f35b34801561025357600080fd5b5061025c6108f5565b6040516102699190612200565b60405180910390f35b34801561027e57600080fd5b50610287610917565b005b34801561029557600080fd5b5061029e610af1565b6040516102ab919061223c565b60405180910390f35b3480156102c057600080fd5b506102db60048036038101906102d69190611e96565b610b15565b6040516102eb9493929190612257565b60405180910390f35b34801561030057600080fd5b5061031b60048036038101906103169190611e96565b610b5f565b604051610328919061229c565b60405180910390f35b610339610b9e565b005b34801561034757600080fd5b50610362600480360381019061035d9190611e96565b610bd9565b005b34801561037057600080fd5b5061038b6004803603810190610386919061210c565b610db4565b005b34801561039957600080fd5b506103b460048036038101906103af9190611e96565b610f6f565b005b3480156103c257600080fd5b506103cb611399565b6040516103d891906122b7565b60405180910390f35b3480156103ed57600080fd5b506103f661139f565b6040516104039190612200565b60405180910390f35b610426600480360381019061042191906122d2565b6113c1565b005b60006005600083815260200190815260200160002060050160009054906101000a900460ff169050919050565b7f000000000000000000000000000000000000000000000000000000000000000073ffffffffffffffffffffffffffffffffffffffff163373ffffffffffffffffffffffffffffffffffffffff161461050757337f00000000000000000000000000000000000000000000000000000000000000006040517f1cf993f40000000000000000000000000000000000000000000000000000000081526004016104fe92919061231b565b60405180910390fd5b6105118282611965565b5050565b60008054906101000a900473ffffffffffffffffffffffffffffffffffffffff1673ffffffffffffffffffffffffffffffffffffffff163373ffffffffffffffffffffffffffffffffffffffff16146105a3576040517f08c379a000000000000000000000000000000000000000000000000000000000815260040161059a906123a1565b60405180910390fd5b60005b60038054905081101561063e57600381815481106105c7576105c66123c1565b5b9060005260206000200160009054906101000a900473ffffffffffffffffffffffffffffffffffffffff1673ffffffffffffffffffffffffffffffffffffffff168273ffffffffffffffffffffffffffffffffffffffff16141561062b57506106da565b80806106369061241f565b9150506105a6565b506003819080600181540180825580915050600190039060005260206000200160009091909190916101000a81548173ffffffffffffffffffffffffffffffffffffffff021916908373ffffffffffffffffffffffffffffffffffffffff1602179055507f39e88f253dc4ea790c2b355aec8c5ac86335a9925c3815b62b74bcdfaffe68ec816040516106d191906124c7565b60405180910390a15b50565b60008054906101000a900473ffffffffffffffffffffffffffffffffffffffff1673ffffffffffffffffffffffffffffffffffffffff163373ffffffffffffffffffffffffffffffffffffffff161461076b576040517f08c379a0000000000000000000000000000000000000000000000000000000008152600401610762906123a1565b60405180910390fd5b60005b600380549050811015610842576003818154811061078f5761078e6123c1565b5b9060005260206000200160009054906101000a900473ffffffffffffffffffffffffffffffffffffffff1673ffffffffffffffffffffffffffffffffffffffff168273ffffffffffffffffffffffffffffffffffffffff16141561082f5760038181548110610801576108006123c1565b5b9060005260206000200160006101000a81549073ffffffffffffffffffffffffffffffffffffffff02191690555b808061083a9061241f565b91505061076e565b5050565b60006006600083815260200190815260200160002060010160019054906101000a900460ff169050919050565b60056020528060005260406000206000915090508060000154908060020154908060030160009054906101000a900473ffffffffffffffffffffffffffffffffffffffff16908060030160149054906101000a900460ff16908060040154908060050160009054906101000a900460ff16908060060154908060070154905088565b600160009054906101000a90046fffffffffffffffffffffffffffffffff1681565b60008054906101000a900473ffffffffffffffffffffffffffffffffffffffff1673ffffffffffffffffffffffffffffffffffffffff163373ffffffffffffffffffffffffffffffffffffffff16146109a5576040517f08c379a000000000000000000000000000000000000000000000000000000000815260040161099c906123a1565b60405180910390fd5b476000106109e8576040517f08c379a00000000000000000000000000000000000000000000000000000000081526004016109df9061252e565b60405180910390fd5b60008060009054906101000a900473ffffffffffffffffffffffffffffffffffffffff1673ffffffffffffffffffffffffffffffffffffffff1647604051610a2f9061257f565b60006040518083038185875af1925050503d8060008114610a6c576040519150601f19603f3d011682016040523d82523d6000602084013e610a71565b606091505b5050905080610ab5576040517f08c379a0000000000000000000000000000000000000000000000000000000008152600401610aac906125e0565b60405180910390fd5b7f7084f5476618d8e60b11ef0d7d3f06914655adb8793e28ff7f018d4c76d505d53347604051610ae6929190612600565b60405180910390a150565b60008054906101000a900473ffffffffffffffffffffffffffffffffffffffff1681565b60066020528060005260406000206000915090508060000154908060010160009054906101000a900460ff16908060010160019054906101000a900460ff16908060020154905084565b60038181548110610b6f57600080fd5b906000526020600020016000915054906101000a900473ffffffffffffffffffffffffffffffffffffffff1681565b7fe03f2fbffd55aceaa08b8e27b348ae6b7607e8a520dfe6a92b053c2ce0ac850a3334604051610bcf929190612600565b60405180910390a1565b60008054906101000a900473ffffffffffffffffffffffffffffffffffffffff1673ffffffffffffffffffffffffffffffffffffffff163373ffffffffffffffffffffffffffffffffffffffff1614610c67576040517f08c379a0000000000000000000000000000000000000000000000000000000008152600401610c5e906123a1565b60405180910390fd5b47811115610caa576040517f08c379a0000000000000000000000000000000000000000000000000000000008152600401610ca19061269b565b60405180910390fd5b60008060009054906101000a900473ffffffffffffffffffffffffffffffffffffffff1673ffffffffffffffffffffffffffffffffffffffff1682604051610cf19061257f565b60006040518083038185875af1925050503d8060008114610d2e576040519150601f19603f3d011682016040523d82523d6000602084013e610d33565b606091505b5050905080610d77576040517f08c379a0000000000000000000000000000000000000000000000000000000008152600401610d6e906125e0565b60405180910390fd5b7f7084f5476618d8e60b11ef0d7d3f06914655adb8793e28ff7f018d4c76d505d53383604051610da8929190612600565b60405180910390a15050565b60008054906101000a900473ffffffffffffffffffffffffffffffffffffffff1673ffffffffffffffffffffffffffffffffffffffff163373ffffffffffffffffffffffffffffffffffffffff1614610e42576040517f08c379a0000000000000000000000000000000000000000000000000000000008152600401610e39906123a1565b60405180910390fd5b600073ffffffffffffffffffffffffffffffffffffffff168173ffffffffffffffffffffffffffffffffffffffff161415610eb2576040517f08c379a0000000000000000000000000000000000000000000000000000000008152600401610ea99061272d565b60405180910390fd5b8073ffffffffffffffffffffffffffffffffffffffff1660008054906101000a900473ffffffffffffffffffffffffffffffffffffffff1673ffffffffffffffffffffffffffffffffffffffff167f1713136758fb583fcecf2c9a737cbb86b4d4ac5b3296135287532cf17591dbfb60405160405180910390a3806000806101000a81548173ffffffffffffffffffffffffffffffffffffffff021916908373ffffffffffffffffffffffffffffffffffffffff16021790555050565b600015156005600083815260200190815260200160002060050160009054906101000a900460ff16151514610fd9576040517f08c379a0000000000000000000000000000000000000000000000000000000008152600401610fd090612799565b60405180910390fd5b600060056000838152602001908152602001600020600001541415611033576040517f08c379a000000000000000000000000000000000000000000000000000000000815260040161102a90612805565b60405180910390fd5b60011515600660006005600085815260200190815260200160002060060154815260200190815260200160002060010160019054906101000a900460ff161515146110b3576040517f08c379a00000000000000000000000000000000000000000000000000000000081526004016110aa906128bd565b60405180910390fd5b60006110ec6006600060056000868152602001908152602001600020600601548152602001908152602001600020600201546026611a80565b9050600061115e826005600086815260200190815260200160002060010180548060200260200160405190810160405280929190818152602001828054801561115457602002820191906000526020600020905b815481526020019060010190808311611140575b5050505050611a96565b905060011515811515141561126e5760006111916005600086815260200190815260200160002060010180549050611afe565b90506111bd6111b6826005600088815260200190815260200160002060020154611b72565b600a611b88565b90506111ff6005600086815260200190815260200160002060030160009054906101000a900473ffffffffffffffffffffffffffffffffffffffff1682611b9e565b60016005600086815260200190815260200160002060030160146101000a81548160ff02191690831515021790555061124e816005600087815260200190815260200160002060020154611d0b565b60056000868152602001908152602001600020600401819055505061126f565b5b60016005600085815260200190815260200160002060050160006101000a81548160ff0219169083151502179055508160056000858152602001908152602001600020600701819055507f252f71a4cfedb4c84acae4b1247271c3587486d403a9559d879121c1a95fa5d7836005600086815260200190815260200160002060010160056000878152602001908152602001600020600201546005600088815260200190815260200160002060030160009054906101000a900473ffffffffffffffffffffffffffffffffffffffff166005600089815260200190815260200160002060030160149054906101000a900460ff16600560008a81526020019081526020016000206004015460405161138c969594939291906129eb565b60405180910390a1505050565b60025481565b600160109054906101000a90046fffffffffffffffffffffffffffffffff1681565b34600160009054906101000a90046fffffffffffffffffffffffffffffffff166fffffffffffffffffffffffffffffffff16811015611435576040517f08c379a000000000000000000000000000000000000000000000000000000000815260040161142c90612a9f565b60405180910390fd5b600160109054906101000a90046fffffffffffffffffffffffffffffffff166fffffffffffffffffffffffffffffffff168111156114a8576040517f08c379a000000000000000000000000000000000000000000000000000000000815260040161149f90612b0b565b60405180910390fd5b34476114b5826001611b72565b11156114f6576040517f08c379a00000000000000000000000000000000000000000000000000000000081526004016114ed90612b9d565b60405180910390fd5b343373ffffffffffffffffffffffffffffffffffffffff16311161154f576040517f08c379a000000000000000000000000000000000000000000000000000000000815260040161154690612c2f565b60405180910390fd5b60078351108015611561575060008351115b8061156d5750600c8351145b80611579575060128351145b6115b8576040517f08c379a00000000000000000000000000000000000000000000000000000000081526004016115af90612c9b565b60405180910390fd5b60006115c333611d21565b9050600115158115151461160c576040517f08c379a000000000000000000000000000000000000000000000000000000000815260040161160390612d2d565b60405180910390fd5b6000600460089054906101000a900473ffffffffffffffffffffffffffffffffffffffff1673ffffffffffffffffffffffffffffffffffffffff16635d3b1d307f474e34a077df58807dbe9c96d3c009b23b3c6d0cce433e59bbf5b34f823bc56c60001b600460009054906101000a900467ffffffffffffffff166003620f424060016040518663ffffffff1660e01b81526004016116af959493929190612dc5565b6020604051808303816000875af11580156116ce573d6000803e3d6000fd5b505050506040513d601f19601f820116820180604052508101906116f29190612e2d565b905060405180608001604052808281526020016001151581526020016000151581526020016000815250600660008381526020019081526020016000206000820151816000015560208201518160010160006101000a81548160ff02191690831515021790555060408201518160010160016101000a81548160ff021916908315150217905550606082015181600201559050507f0cd21a41891ff04ecd9a8754bec97e2fb85d2a4e7694329d4dc364c796f23d06816040516117b591906122b7565b60405180910390a16117ca6002546001611dcc565b60028190555060405180610120016040528060025481526020018681526020013481526020013373ffffffffffffffffffffffffffffffffffffffff16815260200160001515815260200160008152602001600015158152602001828152602001600081525060056000600254815260200190815260200160002060008201518160000155602082015181600101908051906020019061186b929190611de2565b506040820151816002015560608201518160030160006101000a81548173ffffffffffffffffffffffffffffffffffffffff021916908373ffffffffffffffffffffffffffffffffffffffff16021790555060808201518160030160146101000a81548160ff02191690831515021790555060a0820151816004015560c08201518160050160006101000a81548160ff02191690831515021790555060e0820151816006015561010082015181600701559050507f186a6da00ff6e9cdee6a1e9614d5c92f877737d98d7b4072bce9b577fb0b42e26002548634336040516119569493929190612ee0565b60405180910390a15050505050565b6006600083815260200190815260200160002060010160009054906101000a900460ff166119c8576040517f08c379a00000000000000000000000000000000000000000000000000000000081526004016119bf90612f78565b60405180910390fd5b806000815181106119dc576119db6123c1565b5b6020026020010151600660008481526020019081526020016000206002018190555060016006600084815260200190815260200160002060010160016101000a81548160ff0219169083151502179055507f5c69e7026b653d8606b5613bb00fd8c4b0504b1cbe8db600c406faac180924d5826006600085815260200190815260200160002060020154604051611a74929190612f98565b60405180910390a15050565b60008183611a8e9190612ff0565b905092915050565b600080600090505b602681108015611aae5750825181105b15611af25783838281518110611ac757611ac66123c1565b5b60200260200101511415611adf576001915050611af8565b8080611aea9061241f565b915050611a9e565b50600090505b92915050565b60006012821415611b125760149050611b6d565b600c821415611b2457600f9050611b6d565b600782108015611b345750600082115b15611b68576000611b46602484611b88565b9050611b53816001611d0b565b9050611b6081600a611b72565b915050611b6d565b600090505b919050565b60008183611b809190613021565b905092915050565b60008183611b96919061307b565b905092915050565b60008111611be1576040517f08c379a0000000000000000000000000000000000000000000000000000000008152600401611bd8906130f8565b60405180910390fd5b8060008054906101000a900473ffffffffffffffffffffffffffffffffffffffff1673ffffffffffffffffffffffffffffffffffffffff163111611c5a576040517f08c379a0000000000000000000000000000000000000000000000000000000008152600401611c51906131b0565b60405180910390fd5b60008273ffffffffffffffffffffffffffffffffffffffff1682604051611c809061257f565b60006040518083038185875af1925050503d8060008114611cbd576040519150601f19603f3d011682016040523d82523d6000602084013e611cc2565b606091505b5050905080611d06576040517f08c379a0000000000000000000000000000000000000000000000000000000008152600401611cfd9061321c565b60405180910390fd5b505050565b60008183611d19919061323c565b905092915050565b6000805b600380549050811015611dc15760038181548110611d4657611d456123c1565b5b9060005260206000200160009054906101000a900473ffffffffffffffffffffffffffffffffffffffff1673ffffffffffffffffffffffffffffffffffffffff168373ffffffffffffffffffffffffffffffffffffffff161415611dae576001915050611dc7565b8080611db99061241f565b915050611d25565b50600090505b919050565b60008183611dda9190613270565b905092915050565b828054828255906000526020600020908101928215611e1e579160200282015b82811115611e1d578251825591602001919060010190611e02565b5b509050611e2b9190611e2f565b5090565b5b80821115611e48576000816000905550600101611e30565b5090565b6000604051905090565b600080fd5b600080fd5b6000819050919050565b611e7381611e60565b8114611e7e57600080fd5b50565b600081359050611e9081611e6a565b92915050565b600060208284031215611eac57611eab611e56565b5b6000611eba84828501611e81565b91505092915050565b60008115159050919050565b611ed881611ec3565b82525050565b6000602082019050611ef36000830184611ecf565b92915050565b600080fd5b6000601f19601f8301169050919050565b7f4e487b7100000000000000000000000000000000000000000000000000000000600052604160045260246000fd5b611f4782611efe565b810181811067ffffffffffffffff82111715611f6657611f65611f0f565b5b80604052505050565b6000611f79611e4c565b9050611f858282611f3e565b919050565b600067ffffffffffffffff821115611fa557611fa4611f0f565b5b602082029050602081019050919050565b600080fd5b6000611fce611fc984611f8a565b611f6f565b90508083825260208201905060208402830185811115611ff157611ff0611fb6565b5b835b8181101561201a57806120068882611e81565b845260208401935050602081019050611ff3565b5050509392505050565b600082601f83011261203957612038611ef9565b5b8135612049848260208601611fbb565b91505092915050565b6000806040838503121561206957612068611e56565b5b600061207785828601611e81565b925050602083013567ffffffffffffffff81111561209857612097611e5b565b5b6120a485828601612024565b9150509250929050565b600073ffffffffffffffffffffffffffffffffffffffff82169050919050565b60006120d9826120ae565b9050919050565b6120e9816120ce565b81146120f457600080fd5b50565b600081359050612106816120e0565b92915050565b60006020828403121561212257612121611e56565b5b6000612130848285016120f7565b91505092915050565b61214281611e60565b82525050565b612151816120ce565b82525050565b60006101008201905061216d600083018b612139565b61217a602083018a612139565b6121876040830189612148565b6121946060830188611ecf565b6121a16080830187612139565b6121ae60a0830186611ecf565b6121bb60c0830185612139565b6121c860e0830184612139565b9998505050505050505050565b60006fffffffffffffffffffffffffffffffff82169050919050565b6121fa816121d5565b82525050565b600060208201905061221560008301846121f1565b92915050565b6000612226826120ae565b9050919050565b6122368161221b565b82525050565b6000602082019050612251600083018461222d565b92915050565b600060808201905061226c6000830187612139565b6122796020830186611ecf565b6122866040830185611ecf565b6122936060830184612139565b95945050505050565b60006020820190506122b16000830184612148565b92915050565b60006020820190506122cc6000830184612139565b92915050565b6000602082840312156122e8576122e7611e56565b5b600082013567ffffffffffffffff81111561230657612305611e5b565b5b61231284828501612024565b91505092915050565b6000604082019050612330600083018561222d565b61233d602083018461222d565b9392505050565b600082825260208201905092915050565b7f747269656420746f2073656e6420627574206e6f742074686520636173696e6f600082015250565b600061238b602083612344565b915061239682612355565b602082019050919050565b600060208201905081810360008301526123ba8161237e565b9050919050565b7f4e487b7100000000000000000000000000000000000000000000000000000000600052603260045260246000fd5b7f4e487b7100000000000000000000000000000000000000000000000000000000600052601160045260246000fd5b600061242a82611e60565b91507fffffffffffffffffffffffffffffffffffffffffffffffffffffffffffffffff82141561245d5761245c6123f0565b5b600182019050919050565b6000819050919050565b600061248d612488612483846120ae565b612468565b6120ae565b9050919050565b600061249f82612472565b9050919050565b60006124b182612494565b9050919050565b6124c1816124a6565b82525050565b60006020820190506124dc60008301846124b8565b92915050565b7f436173696e6f20686173206e6f2066756e647320746f20776974686472617700600082015250565b6000612518601f83612344565b9150612523826124e2565b602082019050919050565b600060208201905081810360008301526125478161250b565b9050919050565b600081905092915050565b50565b600061256960008361254e565b915061257482612559565b600082019050919050565b600061258a8261255c565b9150819050919050565b7f4661696c656420746f2077697468647261772065746865720000000000000000600082015250565b60006125ca601883612344565b91506125d582612594565b602082019050919050565b600060208201905081810360008301526125f9816125bd565b9050919050565b6000604082019050612615600083018561222d565b6126226020830184612139565b9392505050565b7f417474656d7074696e6720746f207769746864726177206d6f72652066756e6460008201527f73207468616e20636173696e6f2068617320617661696c61626c650000000000602082015250565b6000612685603b83612344565b915061269082612629565b604082019050919050565b600060208201905081810360008301526126b481612678565b9050919050565b7f4e65656420746f207472616e73666572206f776e65727368697020746f20612060008201527f76616c6964206164647265737300000000000000000000000000000000000000602082015250565b6000612717602d83612344565b9150612722826126bb565b604082019050919050565b600060208201905081810360008301526127468161270a565b9050919050565b7f47616d652068617320616c7265616479206265656e2066696e69736865642e00600082015250565b6000612783601f83612344565b915061278e8261274d565b602082019050919050565b600060208201905081810360008301526127b281612776565b9050919050565b7f47616d6520646f6573206e6f742065786973742e000000000000000000000000600082015250565b60006127ef601483612344565b91506127fa826127b9565b602082019050919050565b6000602082019050818103600083015261281e816127e2565b9050919050565b7f52616e646f6d206e756d62657220686173206e6f7420796574206265656e206760008201527f656e6572617465642c2074727920616761696e20616674657220612073686f7260208201527f7420776169742e00000000000000000000000000000000000000000000000000604082015250565b60006128a7604783612344565b91506128b282612825565b606082019050919050565b600060208201905081810360008301526128d68161289a565b9050919050565b600081549050919050565b600082825260208201905092915050565b60008190508160005260206000209050919050565b61291781611e60565b82525050565b6000612929838361290e565b60208301905092915050565b60008160001c9050919050565b6000819050919050565b600061295f61295a83612935565b612942565b9050919050565b6000612972825461294c565b9050919050565b6000600182019050919050565b6000612991826128dd565b61299b81856128e8565b93506129a6836128f9565b8060005b838110156129de576129bb82612966565b6129c5888261291d565b97506129d083612979565b9250506001810190506129aa565b5085935050505092915050565b600060c082019050612a006000830189612139565b8181036020830152612a128188612986565b9050612a216040830187612139565b612a2e6060830186612148565b612a3b6080830185611ecf565b612a4860a0830184612139565b979650505050505050565b7f5374616b652069732062656c6f7720746865206d696e696d756d207374616b65600082015250565b6000612a89602083612344565b9150612a9482612a53565b602082019050919050565b60006020820190508181036000830152612ab881612a7c565b9050919050565b7f5374616b652069732061626f766520746865206d6178696d756d207374616b65600082015250565b6000612af5602083612344565b9150612b0082612abf565b602082019050919050565b60006020820190508181036000830152612b2481612ae8565b9050919050565b7f436173696e6f20646f6573206e6f74206861766520656e6f7567682066756e6460008201527f7300000000000000000000000000000000000000000000000000000000000000602082015250565b6000612b87602183612344565b9150612b9282612b2b565b604082019050919050565b60006020820190508181036000830152612bb681612b7a565b9050919050565b7f4e6f7420656e6f756768206d6f6e657920696e2077616c6c657420746f20706c60008201527f6163652062657400000000000000000000000000000000000000000000000000602082015250565b6000612c19602783612344565b9150612c2482612bbd565b604082019050919050565b60006020820190508181036000830152612c4881612c0c565b9050919050565b7f4e65656420746f206d616b6520612076616c6964206265740000000000000000600082015250565b6000612c85601883612344565b9150612c9082612c4f565b602082019050919050565b60006020820190508181036000830152612cb481612c78565b9050919050565b7f5573657220686173206e6f74206265656e20726567697374657265642077697460008201527f682074686520636173696e6f0000000000000000000000000000000000000000602082015250565b6000612d17602c83612344565b9150612d2282612cbb565b604082019050919050565b60006020820190508181036000830152612d4681612d0a565b9050919050565b6000819050919050565b612d6081612d4d565b82525050565b600067ffffffffffffffff82169050919050565b612d8381612d66565b82525050565b600061ffff82169050919050565b612da081612d89565b82525050565b600063ffffffff82169050919050565b612dbf81612da6565b82525050565b600060a082019050612dda6000830188612d57565b612de76020830187612d7a565b612df46040830186612d97565b612e016060830185612db6565b612e0e6080830184612db6565b9695505050505050565b600081519050612e2781611e6a565b92915050565b600060208284031215612e4357612e42611e56565b5b6000612e5184828501612e18565b91505092915050565b600081519050919050565b6000819050602082019050919050565b6000602082019050919050565b6000612e8d82612e5a565b612e9781856128e8565b9350612ea283612e65565b8060005b83811015612ed3578151612eba888261291d565b9750612ec583612e75565b925050600181019050612ea6565b5085935050505092915050565b6000608082019050612ef56000830187612139565b8181036020830152612f078186612e82565b9050612f166040830185612139565b612f236060830184612148565b95945050505050565b7f5265717565737420776173206e6f7420666f756e640000000000000000000000600082015250565b6000612f62601583612344565b9150612f6d82612f2c565b602082019050919050565b60006020820190508181036000830152612f9181612f55565b9050919050565b6000604082019050612fad6000830185612139565b612fba6020830184612139565b9392505050565b7f4e487b7100000000000000000000000000000000000000000000000000000000600052601260045260246000fd5b6000612ffb82611e60565b915061300683611e60565b92508261301657613015612fc1565b5b828206905092915050565b600061302c82611e60565b915061303783611e60565b9250817fffffffffffffffffffffffffffffffffffffffffffffffffffffffffffffffff04831182151516156130705761306f6123f0565b5b828202905092915050565b600061308682611e60565b915061309183611e60565b9250826130a1576130a0612fc1565b5b828204905092915050565b7f546865207573657220646964206e6f742077696e20616e79206d6f6e65790000600082015250565b60006130e2601e83612344565b91506130ed826130ac565b602082019050919050565b60006020820190508181036000830152613111816130d5565b9050919050565b7f436173696e6f20646f6573206e6f74206861766520656e6f7567682066756e6460008201527f7320746f2072657761726420757365722061667465722073756363657373667560208201527f6c20626574000000000000000000000000000000000000000000000000000000604082015250565b600061319a604583612344565b91506131a582613118565b606082019050919050565b600060208201905081810360008301526131c98161318d565b9050919050565b7f436173696e6f206661696c656420746f2073656e642045746865720000000000600082015250565b6000613206601b83612344565b9150613211826131d0565b602082019050919050565b60006020820190508181036000830152613235816131f9565b9050919050565b600061324782611e60565b915061325283611e60565b925082821015613265576132646123f0565b5b828203905092915050565b600061327b82611e60565b915061328683611e60565b9250827fffffffffffffffffffffffffffffffffffffffffffffffffffffffffffffffff038211156132bb576132ba6123f0565b5b82820190509291505056fea26469706673582212201a5b3ddc48915dfa9b9201f3aa849e601f6bfd7ef54ad6dc3ea7fafe15817bc464736f6c634300080b0033",
  "immutableReferences": {
    "1274": [
      {
        "length": 32,
        "start": 1111
      },
      {
        "length": 32,
        "start": 1195
      }
    ]
  },
  "source": "// SPDX-License-Identifier: UNLICENSED\npragma solidity ^0.8.11;\n\nimport './SafeMath.sol';\nimport \"../node_modules/@chainlink/contracts/src/v0.8/interfaces/VRFCoordinatorV2Interface.sol\";\nimport \"../node_modules/@chainlink/contracts/src/v0.8/VRFConsumerBaseV2.sol\";\n\ncontract RouletteSubscription is VRFConsumerBaseV2{\n    \n    address public casinoAddress; //only this address can acept and end games\n    \n    /// @dev Min value user needs to deposit for creating game session.\n    uint128 public minStake;\n\n    /// @dev Max value user can deposit for creating game session.\n    uint128 public maxStake;\n\n    uint256 public gameId;\n\n    address payable[] public approvedAddresses;\n\n    uint64 subscriptionId = 1215;\n    address constant linkAddress = 0x779877A7B0D9E8603169DdbD7836e478b4624789; //address of the link token\n    bytes32 constant keyHash = 0x474e34a077df58807dbe9c96d3c009b23b3c6d0cce433e59bbf5b34f823bc56c; //keyhash\n    VRFCoordinatorV2Interface COORDINATOR;\n\n    uint32 constant callbackGasLimit = 1 * 10 ** 6;// how much gas they are willing to spend for you (cus they call function in your smart contract to send you the result)\n    uint32 constant numWords =1; //number of random numbers generated\n    uint16 constant requestConfirmations = 3; //how many blocks need to be confirmed (So there can be no manipulations)\n\n    mapping (uint256 => Game) public Games;\n    mapping (uint256 => LinkRequest) public LinkRequests;\n\n    constructor () \n    VRFConsumerBaseV2(0x8103B0A8A00be2DDC778e6e7eaa21791Cd364625)\n    {\n        COORDINATOR = VRFCoordinatorV2Interface(0x8103B0A8A00be2DDC778e6e7eaa21791Cd364625);\n        casinoAddress = payable(msg.sender);\n        gameId = 0;\n\n        minStake = 1 * 10 ** 13; //0.00001 ETH (0.01862 USD as of 8 April)\n        maxStake = 1 * 10 ** 18; //equivalent to 1 eth (1,862 USD as of 8 April)\n    }\n\n    struct LinkRequest {\n        uint256 requestId;\n        bool exists;\n        bool requestFulfilled;\n        uint256 randomWord;\n    }\n    struct Game {\n        uint256 gameId;\n        uint256[] bet;\n        uint256 betAmount;\n        address payable user;\n        bool win;\n        uint256 winnings;\n        bool gameDone;\n        uint256 requestId;\n        uint256 gameResult;\n    }\n    //may wantr to use indexed for gameFinished\n    event betPlaced(uint256 gameId, uint256[] betPlaced, uint256 betValue, address payable user);\n    event RequestSent(uint256 requestId);\n    event RequestFulfilled(uint256 requestId, uint256 randomWords);\n    event gameFinished(uint256 id, uint256[] bet, uint256 betAmount, address payable user, bool win, uint256 winnings);\n    event Recieved(address depositor,uint256 amount);\n    event Withdrawn(address casino, uint256 amount);\n    event OwnershipTransferredSuccessfully(address indexed previousOwner, address indexed newOwner);\n    event RegisterUser(address user);\n\n    function placeBet(uint256[] memory _numbersSelected) public payable onlyValidUserStake(msg.value) onlyValidHouseFunds(msg.value) {\n        //should freeze any more functionality instantly actually (like dont let the user button spam)\n        require (msg.sender.balance > msg.value, \"Not enough money in wallet to place bet\");\n        require (_numbersSelected.length < 7 && _numbersSelected.length > 0 || _numbersSelected.length == 12 || _numbersSelected.length == 18, \"Need to make a valid bet\");\n        \n        bool verified = verifyUser(msg.sender);\n        require (verified == true, \"User has not been registered with the casino\");\n\n        uint256 requestId = COORDINATOR.requestRandomWords(keyHash, subscriptionId, requestConfirmations, callbackGasLimit, numWords); //will revert if subscription is not set and funded\n        LinkRequests[requestId] = LinkRequest(requestId, true, false, 0);\n        emit RequestSent(requestId);\n        \n        gameId = SafeMath.add(gameId, 1);\n        Games[gameId] = Game(gameId, _numbersSelected, msg.value, payable(msg.sender), false, 0, false, requestId, 0);\n        emit betPlaced(gameId, _numbersSelected, msg.value, payable (msg.sender));\n    }\n\n    function fulfillRandomWords(uint256 _requestId, uint256[] memory _randomWords) internal override {\n        require (LinkRequests[_requestId].exists, \"Request was not found\"); //checks whether a request has actually been made\n        LinkRequests[_requestId].randomWord = _randomWords[0];\n        LinkRequests[_requestId].requestFulfilled = true;\n        emit RequestFulfilled(_requestId, LinkRequests[_requestId].randomWord);\n    }\n\n    function endGame(uint256 _gameId) public {\n        require (Games[_gameId].gameDone == false, \"Game has already been finished.\");\n        require (Games[_gameId].gameId != 0, \"Game does not exist.\");\n        require (LinkRequests[Games[_gameId].requestId].requestFulfilled == true, \"Random number has not yet been generated, try again after a short wait.\");\n        uint256 result = SafeMath.mod(LinkRequests[Games[_gameId].requestId].randomWord, 38); //This line extracts the randomly generated number that has been stored by the request struct\n\n        bool won = checkResult(result, Games[_gameId].bet);\n        if (won == true) {//Means that the user placed their bet successfully\n            uint256 payout = calculatePayout(Games[_gameId].bet.length);\n            payout = SafeMath.div(SafeMath.mul(payout, Games[_gameId].betAmount), 10);\n\n            safeTransferWinnings(payable (Games[_gameId].user), payout);\n\n            Games[_gameId].win = true;\n            Games[_gameId].winnings = SafeMath.sub(payout, Games[_gameId].betAmount);\n        } else {\n        }\n        Games[_gameId].gameDone = true;\n        Games[_gameId].gameResult = result;\n        emit gameFinished(_gameId, Games[_gameId].bet, Games[_gameId].betAmount, Games[_gameId].user, Games[_gameId].win, Games[_gameId].winnings);\n    }\n\n    function checkResult (uint256 _result, uint256[] memory _numbersSelected) private pure returns (bool) {\n        for (uint256 i = 0; i< 38 && i < _numbersSelected.length ; i++) {\n            if (_numbersSelected[i] == _result) {\n                return true;\n            }\n        }\n        return false; \n    }\n\n    function calculatePayout(uint256 _amountOfNumbersSelected) private pure returns (uint256) {\n        //All the payouts are multiplied by ten so that the odds 1.5 can be returned (solidity cannot handle floating point numbers)\n        //The payout is later divided by ten after being multiplide with the user's bet\n        //Odds are dependent on the amount of numbers selected not which ones. \n        if (_amountOfNumbersSelected == 18) {\n            //If red/black/odd/even numbers are bet on (payout is 1:1)\n            return 20;\n        } else if (_amountOfNumbersSelected == 12) {\n            //If the 1st/2nd/3rd dozen or the 1st/2nd/3rd column is bet on (payuout is 2:1)\n            return 15;\n        } else if (_amountOfNumbersSelected < 7 && _amountOfNumbersSelected > 0) {\n            // When selecting individual numbers up to 6 can be selected with the odds being (36/# numbers selected) - 1    \n            uint256 payout = SafeMath.div(36, _amountOfNumbersSelected);\n            payout = SafeMath.sub(payout, 1);\n            return SafeMath.mul(payout, 10);\n        }\n        return 0;\n    }\n\n    //Sends money from the casino to the user\n    function safeTransferWinnings(address payable _userAddress, uint256 _userPayout) private {\n        require (_userPayout > 0, \"The user did not win any money\");\n        require (casinoAddress.balance > _userPayout, \"Casino does not have enough funds to reward user after successful bet\");\n        (bool sent,) = _userAddress.call{value: _userPayout}(\"\");\n        require(sent, \"Casino failed to send Ether\");\n        }\n\n    function AddFunds() public payable {\n        emit Recieved(msg.sender, msg.value);\n        //If users pay to the wrong function, consider it a donation.\n    }\n\n    function withdrawFundsWei(uint256 _withdrawAmount) public onlyCasino {\n        require (_withdrawAmount <= address(this).balance, \"Attempting to withdraw more funds than casino has available\");\n        (bool sent,) = casinoAddress.call{value: _withdrawAmount}(\"\");\n        require(sent, \"Failed to withdraw ether\");\n\n        emit Withdrawn(msg.sender, _withdrawAmount);\n    }\n    \n    function withdrawAllFunds() public onlyCasino {\n        require (0 < address(this).balance, \"Casino has no funds to withdraw\");\n        (bool sent,) = casinoAddress.call{value: address(this).balance}(\"\");\n        require(sent, \"Failed to withdraw ether\");\n        emit Withdrawn(msg.sender, address(this).balance);\n    }\n\n    function registerUser(address payable _address) public onlyCasino {\n        //maybe add a check to make sure they're not already registered\n        for (uint i; i < approvedAddresses.length; i++) {\n            if (_address == approvedAddresses[i]) {\n                return;\n            }\n        }\n        approvedAddresses.push(_address);\n        emit RegisterUser(_address);\n    }\n\n    function unregisterUser(address payable _address) public onlyCasino {\n        for (uint i; i < approvedAddresses.length; i++) {\n            if (_address == approvedAddresses[i]) {\n                delete approvedAddresses[i];\n                //no break in case there are multiple instances of a single address\n            }\n        }\n    }\n\n    function verifyUser(address _address) private view returns (bool) {\n        for (uint i; i < approvedAddresses.length; i++) {\n            if (_address == approvedAddresses[i]) {\n                return true;\n            }\n        }\n        return false;\n    }\n\n    function changeOwner(address payable _newOwner) public onlyCasino {\n        require(_newOwner != address(0), \"Need to transfer ownership to a valid address\");\n        emit OwnershipTransferredSuccessfully(casinoAddress, _newOwner);\n        casinoAddress = _newOwner;\n    }\n\n    function getChainLinkStatus(uint256 _requestId) external view returns (bool) {\n        return LinkRequests[_requestId].requestFulfilled;\n    }\n    function getGameStatus(uint256 _gameId) external view returns (bool) {\n        return Games[_gameId].gameDone;\n    }\n\n    // ensures that at a maximum only 10% can be bet at a time\n    modifier onlyValidHouseFunds (uint256 _userBet) {\n        require (SafeMath.mul(_userBet, 1) <= address(this).balance, \"Casino does not have enough funds\");\n        _;\n        //NEED TO CHANGE THE 1 TO 100 WAS SIMPLY MADE TO 1 FOR TESTING PURPOSES\n    }\n\n    modifier onlyValidUserStake (uint256 _userBet) {\n        require (_userBet >= minStake, \"Stake is below the minimum stake\");\n        require (_userBet <= maxStake, \"Stake is above the maximum stake\");\n        _;\n    }\n\n    modifier onlyCasino() {\n        require(msg.sender == casinoAddress, \"tried to send but not the casino\");\n        _;\n    }\n    \n}",
  "sourcePath": "/Users/jeroenmijer/Uni y3/truffle_project/contracts/Roulette.sol",
  "compiler": {
    "name": "solc",
    "version": "0.8.11+commit.d7f03943.Emscripten.clang"
  },
  "schemaVersion": "3.4.13",
  "updatedAt": "2023-04-21T00:10:34.796Z",
  "devdoc": {
    "kind": "dev",
    "methods": {},
    "stateVariables": {
      "maxStake": {
        "details": "Max value user can deposit for creating game session."
      },
      "minStake": {
        "details": "Min value user needs to deposit for creating game session."
      }
    },
    "version": 1
  },
  "userdoc": {
    "kind": "user",
    "methods": {},
    "version": 1
  }
}