{
  "contractName": "Roulette",
  "abi": [
    {
      "inputs": [],
      "stateMutability": "nonpayable",
      "type": "constructor"
    },
    {
      "inputs": [
        {
          "internalType": "address",
          "name": "have",
          "type": "address"
        },
        {
          "internalType": "address",
          "name": "want",
          "type": "address"
        }
      ],
      "name": "OnlyCoordinatorCanFulfill",
      "type": "error"
    },
    {
      "anonymous": false,
      "inputs": [
        {
          "indexed": false,
          "internalType": "uint256",
          "name": "gameId",
          "type": "uint256"
        },
        {
          "indexed": false,
          "internalType": "uint256[]",
          "name": "betPlaced",
          "type": "uint256[]"
        },
        {
          "indexed": false,
          "internalType": "uint256",
          "name": "requestId",
          "type": "uint256"
        },
        {
          "indexed": false,
          "internalType": "uint256",
          "name": "betValue",
          "type": "uint256"
        },
        {
          "indexed": false,
          "internalType": "address payable",
          "name": "user",
          "type": "address"
        }
      ],
      "name": "BetPlaced",
      "type": "event"
    },
    {
      "anonymous": false,
      "inputs": [
        {
          "indexed": true,
          "internalType": "uint256",
          "name": "id",
          "type": "uint256"
        },
        {
          "indexed": false,
          "internalType": "uint256[]",
          "name": "bet",
          "type": "uint256[]"
        },
        {
          "indexed": false,
          "internalType": "uint256",
          "name": "betAmount",
          "type": "uint256"
        },
        {
          "indexed": true,
          "internalType": "address payable",
          "name": "user",
          "type": "address"
        },
        {
          "indexed": true,
          "internalType": "bool",
          "name": "win",
          "type": "bool"
        },
        {
          "indexed": false,
          "internalType": "uint256",
          "name": "winnings",
          "type": "uint256"
        }
      ],
      "name": "GameFinished",
      "type": "event"
    },
    {
      "anonymous": false,
      "inputs": [
        {
          "indexed": true,
          "internalType": "address",
          "name": "previousOwner",
          "type": "address"
        },
        {
          "indexed": true,
          "internalType": "address",
          "name": "newOwner",
          "type": "address"
        }
      ],
      "name": "OwnershipTransferredSuccessfully",
      "type": "event"
    },
    {
      "anonymous": false,
      "inputs": [
        {
          "indexed": true,
          "internalType": "address",
          "name": "depositor",
          "type": "address"
        },
        {
          "indexed": true,
          "internalType": "uint256",
          "name": "amount",
          "type": "uint256"
        }
      ],
      "name": "Recieved",
      "type": "event"
    },
    {
      "anonymous": false,
      "inputs": [
        {
          "indexed": true,
          "internalType": "address",
          "name": "user",
          "type": "address"
        }
      ],
      "name": "RegisterUser",
      "type": "event"
    },
    {
      "anonymous": false,
      "inputs": [
        {
          "indexed": true,
          "internalType": "uint256",
          "name": "requestId",
          "type": "uint256"
        }
      ],
      "name": "RequestSent",
      "type": "event"
    },
    {
      "anonymous": false,
      "inputs": [
        {
          "indexed": true,
          "internalType": "uint256",
          "name": "requestId",
          "type": "uint256"
        },
        {
          "indexed": true,
          "internalType": "uint256",
          "name": "randomWords",
          "type": "uint256"
        }
      ],
      "name": "RequestStored",
      "type": "event"
    },
    {
      "anonymous": false,
      "inputs": [
        {
          "indexed": false,
          "internalType": "address",
          "name": "recoveredAddress",
          "type": "address"
        }
      ],
      "name": "VerifiedAddress",
      "type": "event"
    },
    {
      "anonymous": false,
      "inputs": [
        {
          "indexed": true,
          "internalType": "address",
          "name": "casino",
          "type": "address"
        },
        {
          "indexed": true,
          "internalType": "uint256",
          "name": "amount",
          "type": "uint256"
        }
      ],
      "name": "Withdrawn",
      "type": "event"
    },
    {
      "inputs": [
        {
          "internalType": "uint256",
          "name": "",
          "type": "uint256"
        }
      ],
      "name": "Games",
      "outputs": [
        {
          "internalType": "uint256",
          "name": "gameId",
          "type": "uint256"
        },
        {
          "internalType": "uint256",
          "name": "betAmount",
          "type": "uint256"
        },
        {
          "internalType": "address payable",
          "name": "user",
          "type": "address"
        },
        {
          "internalType": "bool",
          "name": "win",
          "type": "bool"
        },
        {
          "internalType": "uint256",
          "name": "winnings",
          "type": "uint256"
        },
        {
          "internalType": "bool",
          "name": "gameDone",
          "type": "bool"
        },
        {
          "internalType": "uint256",
          "name": "requestId",
          "type": "uint256"
        },
        {
          "internalType": "uint256",
          "name": "gameResult",
          "type": "uint256"
        }
      ],
      "stateMutability": "view",
      "type": "function",
      "constant": true
    },
    {
      "inputs": [
        {
          "internalType": "uint256",
          "name": "",
          "type": "uint256"
        }
      ],
      "name": "LinkRequests",
      "outputs": [
        {
          "internalType": "uint256",
          "name": "requestId",
          "type": "uint256"
        },
        {
          "internalType": "bool",
          "name": "exists",
          "type": "bool"
        },
        {
          "internalType": "bool",
          "name": "requestFulfilled",
          "type": "bool"
        },
        {
          "internalType": "uint256",
          "name": "randomWord",
          "type": "uint256"
        }
      ],
      "stateMutability": "view",
      "type": "function",
      "constant": true
    },
    {
      "inputs": [
        {
          "internalType": "uint256",
          "name": "",
          "type": "uint256"
        }
      ],
      "name": "approvedAddresses",
      "outputs": [
        {
          "internalType": "address payable",
          "name": "",
          "type": "address"
        }
      ],
      "stateMutability": "view",
      "type": "function",
      "constant": true
    },
    {
      "inputs": [],
      "name": "casinoAddress",
      "outputs": [
        {
          "internalType": "address",
          "name": "",
          "type": "address"
        }
      ],
      "stateMutability": "view",
      "type": "function",
      "constant": true
    },
    {
      "inputs": [],
      "name": "gameId",
      "outputs": [
        {
          "internalType": "uint256",
          "name": "",
          "type": "uint256"
        }
      ],
      "stateMutability": "view",
      "type": "function",
      "constant": true
    },
    {
      "inputs": [],
      "name": "maxStake",
      "outputs": [
        {
          "internalType": "uint128",
          "name": "",
          "type": "uint128"
        }
      ],
      "stateMutability": "view",
      "type": "function",
      "constant": true
    },
    {
      "inputs": [],
      "name": "minStake",
      "outputs": [
        {
          "internalType": "uint128",
          "name": "",
          "type": "uint128"
        }
      ],
      "stateMutability": "view",
      "type": "function",
      "constant": true
    },
    {
      "inputs": [
        {
          "internalType": "uint256",
          "name": "requestId",
          "type": "uint256"
        },
        {
          "internalType": "uint256[]",
          "name": "randomWords",
          "type": "uint256[]"
        }
      ],
      "name": "rawFulfillRandomWords",
      "outputs": [],
      "stateMutability": "nonpayable",
      "type": "function"
    },
    {
      "inputs": [
        {
          "internalType": "uint256[]",
          "name": "_numbersSelected",
          "type": "uint256[]"
        }
      ],
      "name": "placeBet",
      "outputs": [],
      "stateMutability": "payable",
      "type": "function",
      "payable": true
    },
    {
      "inputs": [
        {
          "internalType": "uint256",
          "name": "_gameId",
          "type": "uint256"
        }
      ],
      "name": "endGame",
      "outputs": [],
      "stateMutability": "nonpayable",
      "type": "function"
    },
    {
      "inputs": [],
      "name": "addFunds",
      "outputs": [],
      "stateMutability": "payable",
      "type": "function",
      "payable": true
    },
    {
      "inputs": [
        {
          "internalType": "uint256",
          "name": "_withdrawAmount",
          "type": "uint256"
        }
      ],
      "name": "withdrawFundsWei",
      "outputs": [],
      "stateMutability": "nonpayable",
      "type": "function"
    },
    {
      "inputs": [],
      "name": "withdrawAllFunds",
      "outputs": [],
      "stateMutability": "nonpayable",
      "type": "function"
    },
    {
      "inputs": [
        {
          "internalType": "address payable",
          "name": "_address",
          "type": "address"
        },
        {
          "internalType": "bytes32",
          "name": "_messageHash",
          "type": "bytes32"
        },
        {
          "internalType": "uint8",
          "name": "_v",
          "type": "uint8"
        },
        {
          "internalType": "bytes32",
          "name": "_r",
          "type": "bytes32"
        },
        {
          "internalType": "bytes32",
          "name": "_s",
          "type": "bytes32"
        }
      ],
      "name": "registerUser",
      "outputs": [],
      "stateMutability": "nonpayable",
      "type": "function"
    },
    {
      "inputs": [
        {
          "internalType": "address payable",
          "name": "_address",
          "type": "address"
        }
      ],
      "name": "unregisterUser",
      "outputs": [],
      "stateMutability": "nonpayable",
      "type": "function"
    },
    {
      "inputs": [],
      "name": "getApprovedUsers",
      "outputs": [
        {
          "internalType": "address payable[]",
          "name": "",
          "type": "address[]"
        }
      ],
      "stateMutability": "view",
      "type": "function",
      "constant": true
    },
    {
      "inputs": [
        {
          "internalType": "address payable",
          "name": "_newOwner",
          "type": "address"
        }
      ],
      "name": "changeOwner",
      "outputs": [],
      "stateMutability": "nonpayable",
      "type": "function"
    }
  ],
  "bytecode": "0x60a06040526104bf600460006101000a81548167ffffffffffffffff021916908367ffffffffffffffff16021790555034801561003b57600080fd5b50738103b0a8a00be2ddc778e6e7eaa21791cd3646258073ffffffffffffffffffffffffffffffffffffffff1660808173ffffffffffffffffffffffffffffffffffffffff168152505050738103b0a8a00be2ddc778e6e7eaa21791cd364625600460086101000a81548173ffffffffffffffffffffffffffffffffffffffff021916908373ffffffffffffffffffffffffffffffffffffffff160217905550336000806101000a81548173ffffffffffffffffffffffffffffffffffffffff021916908373ffffffffffffffffffffffffffffffffffffffff16021790555060006002819055506509184e72a000600160006101000a8154816fffffffffffffffffffffffffffffffff02191690836fffffffffffffffffffffffffffffffff160217905550670de0b6b3a7640000600160106101000a8154816fffffffffffffffffffffffffffffffff02191690836fffffffffffffffffffffffffffffffff1602179055506080516135286101c56000396000818161045e01526104b201526135286000f3fe6080604052600436106100fe5760003560e01c806395bf190e11610095578063d0399bb811610064578063d0399bb81461030a578063d7c81b5514610333578063ea1b28e01461035e578063f72ea9dc14610389578063f7eafbed146103a5576100fe565b806395bf190e14610271578063a26759cb146102ae578063a6551784146102b8578063a6f9dae1146102e1576100fe565b8063375b3c0a116100d1578063375b3c0a146101c457806349649fbf146101ef5780636ade21e4146102065780638421ea1514610231576100fe565b806316d119fa146101035780631fe543e31461012e57806321f2ca3b1461015757806329d4f4c314610180575b600080fd5b34801561010f57600080fd5b506101186103ce565b6040516101259190611fbc565b60405180910390f35b34801561013a57600080fd5b5061015560048036038101906101509190612181565b61045c565b005b34801561016357600080fd5b5061017e60048036038101906101799190612209565b61051c565b005b34801561018c57600080fd5b506101a760048036038101906101a29190612236565b610737565b6040516101bb98979695949392919061229c565b60405180910390f35b3480156101d057600080fd5b506101d96107b9565b6040516101e69190612345565b60405180910390f35b3480156101fb57600080fd5b506102046107db565b005b34801561021257600080fd5b5061021b6109c6565b6040516102289190612381565b60405180910390f35b34801561023d57600080fd5b5061025860048036038101906102539190612236565b6109ea565b604051610268949392919061239c565b60405180910390f35b34801561027d57600080fd5b5061029860048036038101906102939190612236565b610a34565b6040516102a591906123e1565b60405180910390f35b6102b6610a73565b005b3480156102c457600080fd5b506102df60048036038101906102da9190612236565b610ab9565b005b3480156102ed57600080fd5b5061030860048036038101906103039190612209565b610c9f565b005b34801561031657600080fd5b50610331600480360381019061032c9190612236565b610e5a565b005b34801561033f57600080fd5b50610348611299565b60405161035591906123fc565b60405180910390f35b34801561036a57600080fd5b5061037361129f565b6040516103809190612345565b60405180910390f35b6103a3600480360381019061039e9190612417565b6112c1565b005b3480156103b157600080fd5b506103cc60048036038101906103c791906124cf565b611859565b005b6060600380548060200260200160405190810160405280929190818152602001828054801561045257602002820191906000526020600020905b8160009054906101000a900473ffffffffffffffffffffffffffffffffffffffff1673ffffffffffffffffffffffffffffffffffffffff1681526020019060010190808311610408575b5050505050905090565b7f000000000000000000000000000000000000000000000000000000000000000073ffffffffffffffffffffffffffffffffffffffff163373ffffffffffffffffffffffffffffffffffffffff161461050e57337f00000000000000000000000000000000000000000000000000000000000000006040517f1cf993f400000000000000000000000000000000000000000000000000000000815260040161050592919061254a565b60405180910390fd5b61051882826119f0565b5050565b60008054906101000a900473ffffffffffffffffffffffffffffffffffffffff1673ffffffffffffffffffffffffffffffffffffffff163373ffffffffffffffffffffffffffffffffffffffff16146105aa576040517f08c379a00000000000000000000000000000000000000000000000000000000081526004016105a1906125d0565b60405180910390fd5b60005b60038054905081101561073357600381815481106105ce576105cd6125f0565b5b9060005260206000200160009054906101000a900473ffffffffffffffffffffffffffffffffffffffff1673ffffffffffffffffffffffffffffffffffffffff168273ffffffffffffffffffffffffffffffffffffffff1614156107205760036001600380549050610640919061264e565b81548110610651576106506125f0565b5b9060005260206000200160009054906101000a900473ffffffffffffffffffffffffffffffffffffffff16600382815481106106905761068f6125f0565b5b9060005260206000200160006101000a81548173ffffffffffffffffffffffffffffffffffffffff021916908373ffffffffffffffffffffffffffffffffffffffff16021790555060038054806106ea576106e9612682565b5b6001900381819060005260206000200160006101000a81549073ffffffffffffffffffffffffffffffffffffffff021916905590555b808061072b906126b1565b9150506105ad565b5050565b60056020528060005260406000206000915090508060000154908060020154908060030160009054906101000a900473ffffffffffffffffffffffffffffffffffffffff16908060030160149054906101000a900460ff16908060040154908060050160009054906101000a900460ff16908060060154908060070154905088565b600160009054906101000a90046fffffffffffffffffffffffffffffffff1681565b60008054906101000a900473ffffffffffffffffffffffffffffffffffffffff1673ffffffffffffffffffffffffffffffffffffffff163373ffffffffffffffffffffffffffffffffffffffff1614610869576040517f08c379a0000000000000000000000000000000000000000000000000000000008152600401610860906125d0565b60405180910390fd5b476000106108ac576040517f08c379a00000000000000000000000000000000000000000000000000000000081526004016108a390612746565b60405180910390fd5b600047905060008060009054906101000a900473ffffffffffffffffffffffffffffffffffffffff1673ffffffffffffffffffffffffffffffffffffffff16476040516108f890612797565b60006040518083038185875af1925050503d8060008114610935576040519150601f19603f3d011682016040523d82523d6000602084013e61093a565b606091505b505090508061097e576040517f08c379a0000000000000000000000000000000000000000000000000000000008152600401610975906127f8565b60405180910390fd5b813373ffffffffffffffffffffffffffffffffffffffff167f7084f5476618d8e60b11ef0d7d3f06914655adb8793e28ff7f018d4c76d505d560405160405180910390a35050565b60008054906101000a900473ffffffffffffffffffffffffffffffffffffffff1681565b60066020528060005260406000206000915090508060000154908060010160009054906101000a900460ff16908060010160019054906101000a900460ff16908060020154905084565b60038181548110610a4457600080fd5b906000526020600020016000915054906101000a900473ffffffffffffffffffffffffffffffffffffffff1681565b343373ffffffffffffffffffffffffffffffffffffffff167fe03f2fbffd55aceaa08b8e27b348ae6b7607e8a520dfe6a92b053c2ce0ac850a60405160405180910390a3565b60008054906101000a900473ffffffffffffffffffffffffffffffffffffffff1673ffffffffffffffffffffffffffffffffffffffff163373ffffffffffffffffffffffffffffffffffffffff1614610b47576040517f08c379a0000000000000000000000000000000000000000000000000000000008152600401610b3e906125d0565b60405180910390fd5b47811115610b8a576040517f08c379a0000000000000000000000000000000000000000000000000000000008152600401610b819061288a565b60405180910390fd5b60008060009054906101000a900473ffffffffffffffffffffffffffffffffffffffff1673ffffffffffffffffffffffffffffffffffffffff1682604051610bd190612797565b60006040518083038185875af1925050503d8060008114610c0e576040519150601f19603f3d011682016040523d82523d6000602084013e610c13565b606091505b5050905080610c57576040517f08c379a0000000000000000000000000000000000000000000000000000000008152600401610c4e906127f8565b60405180910390fd5b813373ffffffffffffffffffffffffffffffffffffffff167f7084f5476618d8e60b11ef0d7d3f06914655adb8793e28ff7f018d4c76d505d560405160405180910390a35050565b60008054906101000a900473ffffffffffffffffffffffffffffffffffffffff1673ffffffffffffffffffffffffffffffffffffffff163373ffffffffffffffffffffffffffffffffffffffff1614610d2d576040517f08c379a0000000000000000000000000000000000000000000000000000000008152600401610d24906125d0565b60405180910390fd5b600073ffffffffffffffffffffffffffffffffffffffff168173ffffffffffffffffffffffffffffffffffffffff161415610d9d576040517f08c379a0000000000000000000000000000000000000000000000000000000008152600401610d949061291c565b60405180910390fd5b8073ffffffffffffffffffffffffffffffffffffffff1660008054906101000a900473ffffffffffffffffffffffffffffffffffffffff1673ffffffffffffffffffffffffffffffffffffffff167f1713136758fb583fcecf2c9a737cbb86b4d4ac5b3296135287532cf17591dbfb60405160405180910390a3806000806101000a81548173ffffffffffffffffffffffffffffffffffffffff021916908373ffffffffffffffffffffffffffffffffffffffff16021790555050565b600015156005600083815260200190815260200160002060050160009054906101000a900460ff16151514610ec4576040517f08c379a0000000000000000000000000000000000000000000000000000000008152600401610ebb90612988565b60405180910390fd5b600060056000838152602001908152602001600020600001541415610f1e576040517f08c379a0000000000000000000000000000000000000000000000000000000008152600401610f15906129f4565b60405180910390fd5b60011515600660006005600085815260200190815260200160002060060154815260200190815260200160002060010160019054906101000a900460ff16151514610f9e576040517f08c379a0000000000000000000000000000000000000000000000000000000008152600401610f9590612aac565b60405180910390fd5b6000610fd76006600060056000868152602001908152602001600020600601548152602001908152602001600020600201546026611b00565b90506000611049826005600086815260200190815260200160002060010180548060200260200160405190810160405280929190818152602001828054801561103f57602002820191906000526020600020905b81548152602001906001019080831161102b575b5050505050611b16565b905060011515811515141561115957600061107c6005600086815260200190815260200160002060010180549050611b7e565b90506110a86110a1826005600088815260200190815260200160002060020154611bf2565b600a611c08565b90506110ea6005600086815260200190815260200160002060030160009054906101000a900473ffffffffffffffffffffffffffffffffffffffff1682611c1e565b60016005600086815260200190815260200160002060030160146101000a81548160ff021916908315150217905550611139816005600087815260200190815260200160002060020154611d8b565b60056000868152602001908152602001600020600401819055505061115a565b5b60016005600085815260200190815260200160002060050160006101000a81548160ff0219169083151502179055508160056000858152602001908152602001600020600701819055506005600084815260200190815260200160002060030160149054906101000a900460ff1615156005600085815260200190815260200160002060030160009054906101000a900473ffffffffffffffffffffffffffffffffffffffff1673ffffffffffffffffffffffffffffffffffffffff16847fe4a9a27375958bdad88a8ac5d5c369f92a60d811a02f5162c9a0f8772748c207600560008881526020019081526020016000206001016005600089815260200190815260200160002060020154600560008a81526020019081526020016000206004015460405161128c93929190612bda565b60405180910390a4505050565b60025481565b600160109054906101000a90046fffffffffffffffffffffffffffffffff1681565b34600160009054906101000a90046fffffffffffffffffffffffffffffffff166fffffffffffffffffffffffffffffffff16811015611335576040517f08c379a000000000000000000000000000000000000000000000000000000000815260040161132c90612c64565b60405180910390fd5b600160109054906101000a90046fffffffffffffffffffffffffffffffff166fffffffffffffffffffffffffffffffff168111156113a8576040517f08c379a000000000000000000000000000000000000000000000000000000000815260040161139f90612cd0565b60405180910390fd5b33600115156113b682611da1565b1515146113f8576040517f08c379a00000000000000000000000000000000000000000000000000000000081526004016113ef90612d3c565b60405180910390fd5b3447611405826064611bf2565b1115611446576040517f08c379a000000000000000000000000000000000000000000000000000000000815260040161143d90612dce565b60405180910390fd5b343373ffffffffffffffffffffffffffffffffffffffff16311161149f576040517f08c379a000000000000000000000000000000000000000000000000000000000815260040161149690612e60565b60405180910390fd5b600784511080156114b1575060008451115b806114bd5750600c8451145b806114c9575060128451145b611508576040517f08c379a00000000000000000000000000000000000000000000000000000000081526004016114ff90612ecc565b60405180910390fd5b6000600460089054906101000a900473ffffffffffffffffffffffffffffffffffffffff1673ffffffffffffffffffffffffffffffffffffffff16635d3b1d307f474e34a077df58807dbe9c96d3c009b23b3c6d0cce433e59bbf5b34f823bc56c60001b600460009054906101000a900467ffffffffffffffff166003620f424060016040518663ffffffff1660e01b81526004016115ab959493929190612f5a565b6020604051808303816000875af11580156115ca573d6000803e3d6000fd5b505050506040513d601f19601f820116820180604052508101906115ee9190612fc2565b905060405180608001604052808281526020016001151581526020016000151581526020016000815250600660008381526020019081526020016000206000820151816000015560208201518160010160006101000a81548160ff02191690831515021790555060408201518160010160016101000a81548160ff02191690831515021790555060608201518160020155905050807f0cd21a41891ff04ecd9a8754bec97e2fb85d2a4e7694329d4dc364c796f23d0660405160405180910390a26116bc6002546001611e4c565b60028190555060405180610120016040528060025481526020018681526020013481526020013373ffffffffffffffffffffffffffffffffffffffff16815260200160001515815260200160008152602001600015158152602001828152602001600081525060056000600254815260200190815260200160002060008201518160000155602082015181600101908051906020019061175d929190611e62565b506040820151816002015560608201518160030160006101000a81548173ffffffffffffffffffffffffffffffffffffffff021916908373ffffffffffffffffffffffffffffffffffffffff16021790555060808201518160030160146101000a81548160ff02191690831515021790555060a0820151816004015560c08201518160050160006101000a81548160ff02191690831515021790555060e0820151816006015561010082015181600701559050507fea90bc2f35b02979983ff0519de27d7fa39744d84249e47e97fae7da9fc128156002548683343360405161184a959493929190613075565b60405180910390a15050505050565b8383838360006001858585856040516000815260200160405260405161188294939291906130de565b6020604051602081039080840390855afa1580156118a4573d6000803e3d6000fd5b50505060206040510351905060008054906101000a900473ffffffffffffffffffffffffffffffffffffffff1673ffffffffffffffffffffffffffffffffffffffff168173ffffffffffffffffffffffffffffffffffffffff161461193e576040517f08c379a000000000000000000000000000000000000000000000000000000000815260040161193590613195565b60405180910390fd5b60038a9080600181540180825580915050600190039060005260206000200160009091909190916101000a81548173ffffffffffffffffffffffffffffffffffffffff021916908373ffffffffffffffffffffffffffffffffffffffff1602179055508973ffffffffffffffffffffffffffffffffffffffff167f39e88f253dc4ea790c2b355aec8c5ac86335a9925c3815b62b74bcdfaffe68ec60405160405180910390a250505050505050505050565b6006600083815260200190815260200160002060010160009054906101000a900460ff16611a53576040517f08c379a0000000000000000000000000000000000000000000000000000000008152600401611a4a90613201565b60405180910390fd5b80600081518110611a6757611a666125f0565b5b6020026020010151600660008481526020019081526020016000206002018190555060016006600084815260200190815260200160002060010160016101000a81548160ff0219169083151502179055506006600083815260200190815260200160002060020154827f65e2e596ec46f1791450bbb1a80e4898966a841e4c728f99d19777568bf13db560405160405180910390a35050565b60008183611b0e9190613250565b905092915050565b600080600090505b602681108015611b2e5750825181105b15611b725783838281518110611b4757611b466125f0565b5b60200260200101511415611b5f576001915050611b78565b8080611b6a906126b1565b915050611b1e565b50600090505b92915050565b60006012821415611b925760149050611bed565b600c821415611ba457600f9050611bed565b600782108015611bb45750600082115b15611be8576000611bc6602484611c08565b9050611bd3816001611d8b565b9050611be081600a611bf2565b915050611bed565b600090505b919050565b60008183611c009190613281565b905092915050565b60008183611c1691906132db565b905092915050565b60008111611c61576040517f08c379a0000000000000000000000000000000000000000000000000000000008152600401611c5890613358565b60405180910390fd5b8060008054906101000a900473ffffffffffffffffffffffffffffffffffffffff1673ffffffffffffffffffffffffffffffffffffffff163111611cda576040517f08c379a0000000000000000000000000000000000000000000000000000000008152600401611cd190613410565b60405180910390fd5b60008273ffffffffffffffffffffffffffffffffffffffff1682604051611d0090612797565b60006040518083038185875af1925050503d8060008114611d3d576040519150601f19603f3d011682016040523d82523d6000602084013e611d42565b606091505b5050905080611d86576040517f08c379a0000000000000000000000000000000000000000000000000000000008152600401611d7d9061347c565b60405180910390fd5b505050565b60008183611d99919061264e565b905092915050565b6000805b600380549050811015611e415760038181548110611dc657611dc56125f0565b5b9060005260206000200160009054906101000a900473ffffffffffffffffffffffffffffffffffffffff1673ffffffffffffffffffffffffffffffffffffffff168373ffffffffffffffffffffffffffffffffffffffff161415611e2e576001915050611e47565b8080611e39906126b1565b915050611da5565b50600090505b919050565b60008183611e5a919061349c565b905092915050565b828054828255906000526020600020908101928215611e9e579160200282015b82811115611e9d578251825591602001919060010190611e82565b5b509050611eab9190611eaf565b5090565b5b80821115611ec8576000816000905550600101611eb0565b5090565b600081519050919050565b600082825260208201905092915050565b6000819050602082019050919050565b600073ffffffffffffffffffffffffffffffffffffffff82169050919050565b6000611f2382611ef8565b9050919050565b611f3381611f18565b82525050565b6000611f458383611f2a565b60208301905092915050565b6000602082019050919050565b6000611f6982611ecc565b611f738185611ed7565b9350611f7e83611ee8565b8060005b83811015611faf578151611f968882611f39565b9750611fa183611f51565b925050600181019050611f82565b5085935050505092915050565b60006020820190508181036000830152611fd68184611f5e565b905092915050565b6000604051905090565b600080fd5b600080fd5b6000819050919050565b61200581611ff2565b811461201057600080fd5b50565b60008135905061202281611ffc565b92915050565b600080fd5b6000601f19601f8301169050919050565b7f4e487b7100000000000000000000000000000000000000000000000000000000600052604160045260246000fd5b6120768261202d565b810181811067ffffffffffffffff821117156120955761209461203e565b5b80604052505050565b60006120a8611fde565b90506120b4828261206d565b919050565b600067ffffffffffffffff8211156120d4576120d361203e565b5b602082029050602081019050919050565b600080fd5b60006120fd6120f8846120b9565b61209e565b905080838252602082019050602084028301858111156121205761211f6120e5565b5b835b8181101561214957806121358882612013565b845260208401935050602081019050612122565b5050509392505050565b600082601f83011261216857612167612028565b5b81356121788482602086016120ea565b91505092915050565b6000806040838503121561219857612197611fe8565b5b60006121a685828601612013565b925050602083013567ffffffffffffffff8111156121c7576121c6611fed565b5b6121d385828601612153565b9150509250929050565b6121e681611f18565b81146121f157600080fd5b50565b600081359050612203816121dd565b92915050565b60006020828403121561221f5761221e611fe8565b5b600061222d848285016121f4565b91505092915050565b60006020828403121561224c5761224b611fe8565b5b600061225a84828501612013565b91505092915050565b61226c81611ff2565b82525050565b61227b81611f18565b82525050565b60008115159050919050565b61229681612281565b82525050565b6000610100820190506122b2600083018b612263565b6122bf602083018a612263565b6122cc6040830189612272565b6122d9606083018861228d565b6122e66080830187612263565b6122f360a083018661228d565b61230060c0830185612263565b61230d60e0830184612263565b9998505050505050505050565b60006fffffffffffffffffffffffffffffffff82169050919050565b61233f8161231a565b82525050565b600060208201905061235a6000830184612336565b92915050565b600061236b82611ef8565b9050919050565b61237b81612360565b82525050565b60006020820190506123966000830184612372565b92915050565b60006080820190506123b16000830187612263565b6123be602083018661228d565b6123cb604083018561228d565b6123d86060830184612263565b95945050505050565b60006020820190506123f66000830184612272565b92915050565b60006020820190506124116000830184612263565b92915050565b60006020828403121561242d5761242c611fe8565b5b600082013567ffffffffffffffff81111561244b5761244a611fed565b5b61245784828501612153565b91505092915050565b6000819050919050565b61247381612460565b811461247e57600080fd5b50565b6000813590506124908161246a565b92915050565b600060ff82169050919050565b6124ac81612496565b81146124b757600080fd5b50565b6000813590506124c9816124a3565b92915050565b600080600080600060a086880312156124eb576124ea611fe8565b5b60006124f9888289016121f4565b955050602061250a88828901612481565b945050604061251b888289016124ba565b935050606061252c88828901612481565b925050608061253d88828901612481565b9150509295509295909350565b600060408201905061255f6000830185612372565b61256c6020830184612372565b9392505050565b600082825260208201905092915050565b7f41646472657373206973206e6f742074686520636173696e6f00000000000000600082015250565b60006125ba601983612573565b91506125c582612584565b602082019050919050565b600060208201905081810360008301526125e9816125ad565b9050919050565b7f4e487b7100000000000000000000000000000000000000000000000000000000600052603260045260246000fd5b7f4e487b7100000000000000000000000000000000000000000000000000000000600052601160045260246000fd5b600061265982611ff2565b915061266483611ff2565b9250828210156126775761267661261f565b5b828203905092915050565b7f4e487b7100000000000000000000000000000000000000000000000000000000600052603160045260246000fd5b60006126bc82611ff2565b91507fffffffffffffffffffffffffffffffffffffffffffffffffffffffffffffffff8214156126ef576126ee61261f565b5b600182019050919050565b7f436173696e6f20686173206e6f2066756e647320746f20776974686472617700600082015250565b6000612730601f83612573565b915061273b826126fa565b602082019050919050565b6000602082019050818103600083015261275f81612723565b9050919050565b600081905092915050565b50565b6000612781600083612766565b915061278c82612771565b600082019050919050565b60006127a282612774565b9150819050919050565b7f4661696c656420746f2077697468647261772065746865720000000000000000600082015250565b60006127e2601883612573565b91506127ed826127ac565b602082019050919050565b60006020820190508181036000830152612811816127d5565b9050919050565b7f417474656d7074696e6720746f207769746864726177206d6f72652066756e6460008201527f73207468616e20636173696e6f2068617320617661696c61626c650000000000602082015250565b6000612874603b83612573565b915061287f82612818565b604082019050919050565b600060208201905081810360008301526128a381612867565b9050919050565b7f4e65656420746f207472616e73666572206f776e65727368697020746f20612060008201527f76616c6964206164647265737300000000000000000000000000000000000000602082015250565b6000612906602d83612573565b9150612911826128aa565b604082019050919050565b60006020820190508181036000830152612935816128f9565b9050919050565b7f47616d652068617320616c7265616479206265656e2066696e69736865642e00600082015250565b6000612972601f83612573565b915061297d8261293c565b602082019050919050565b600060208201905081810360008301526129a181612965565b9050919050565b7f47616d6520646f6573206e6f742065786973742e000000000000000000000000600082015250565b60006129de601483612573565b91506129e9826129a8565b602082019050919050565b60006020820190508181036000830152612a0d816129d1565b9050919050565b7f52616e646f6d206e756d62657220686173206e6f7420796574206265656e206760008201527f656e6572617465642c2074727920616761696e20616674657220612073686f7260208201527f7420776169742e00000000000000000000000000000000000000000000000000604082015250565b6000612a96604783612573565b9150612aa182612a14565b606082019050919050565b60006020820190508181036000830152612ac581612a89565b9050919050565b600081549050919050565b600082825260208201905092915050565b60008190508160005260206000209050919050565b612b0681611ff2565b82525050565b6000612b188383612afd565b60208301905092915050565b60008160001c9050919050565b6000819050919050565b6000612b4e612b4983612b24565b612b31565b9050919050565b6000612b618254612b3b565b9050919050565b6000600182019050919050565b6000612b8082612acc565b612b8a8185612ad7565b9350612b9583612ae8565b8060005b83811015612bcd57612baa82612b55565b612bb48882612b0c565b9750612bbf83612b68565b925050600181019050612b99565b5085935050505092915050565b60006060820190508181036000830152612bf48186612b75565b9050612c036020830185612263565b612c106040830184612263565b949350505050565b7f5374616b652069732062656c6f7720746865206d696e696d756d207374616b65600082015250565b6000612c4e602083612573565b9150612c5982612c18565b602082019050919050565b60006020820190508181036000830152612c7d81612c41565b9050919050565b7f5374616b652069732061626f766520746865206d6178696d756d207374616b65600082015250565b6000612cba602083612573565b9150612cc582612c84565b602082019050919050565b60006020820190508181036000830152612ce981612cad565b9050919050565b7f55736572206973206e6f74207665726966696564000000000000000000000000600082015250565b6000612d26601483612573565b9150612d3182612cf0565b602082019050919050565b60006020820190508181036000830152612d5581612d19565b9050919050565b7f436173696e6f20646f6573206e6f74206861766520656e6f7567682066756e6460008201527f7300000000000000000000000000000000000000000000000000000000000000602082015250565b6000612db8602183612573565b9150612dc382612d5c565b604082019050919050565b60006020820190508181036000830152612de781612dab565b9050919050565b7f4e6f7420656e6f756768206d6f6e657920696e2077616c6c657420746f20706c60008201527f6163652062657400000000000000000000000000000000000000000000000000602082015250565b6000612e4a602783612573565b9150612e5582612dee565b604082019050919050565b60006020820190508181036000830152612e7981612e3d565b9050919050565b7f4e65656420746f206d616b6520612076616c6964206265740000000000000000600082015250565b6000612eb6601883612573565b9150612ec182612e80565b602082019050919050565b60006020820190508181036000830152612ee581612ea9565b9050919050565b612ef581612460565b82525050565b600067ffffffffffffffff82169050919050565b612f1881612efb565b82525050565b600061ffff82169050919050565b612f3581612f1e565b82525050565b600063ffffffff82169050919050565b612f5481612f3b565b82525050565b600060a082019050612f6f6000830188612eec565b612f7c6020830187612f0f565b612f896040830186612f2c565b612f966060830185612f4b565b612fa36080830184612f4b565b9695505050505050565b600081519050612fbc81611ffc565b92915050565b600060208284031215612fd857612fd7611fe8565b5b6000612fe684828501612fad565b91505092915050565b600081519050919050565b6000819050602082019050919050565b6000602082019050919050565b600061302282612fef565b61302c8185612ad7565b935061303783612ffa565b8060005b8381101561306857815161304f8882612b0c565b975061305a8361300a565b92505060018101905061303b565b5085935050505092915050565b600060a08201905061308a6000830188612263565b818103602083015261309c8187613017565b90506130ab6040830186612263565b6130b86060830185612263565b6130c56080830184612272565b9695505050505050565b6130d881612496565b82525050565b60006080820190506130f36000830187612eec565b61310060208301866130cf565b61310d6040830185612eec565b61311a6060830184612eec565b95945050505050565b7f4f6e6c792074686520446170702063616e20726567697374657220612075736560008201527f7200000000000000000000000000000000000000000000000000000000000000602082015250565b600061317f602183612573565b915061318a82613123565b604082019050919050565b600060208201905081810360008301526131ae81613172565b9050919050565b7f5265717565737420776173206e6f7420666f756e640000000000000000000000600082015250565b60006131eb601583612573565b91506131f6826131b5565b602082019050919050565b6000602082019050818103600083015261321a816131de565b9050919050565b7f4e487b7100000000000000000000000000000000000000000000000000000000600052601260045260246000fd5b600061325b82611ff2565b915061326683611ff2565b92508261327657613275613221565b5b828206905092915050565b600061328c82611ff2565b915061329783611ff2565b9250817fffffffffffffffffffffffffffffffffffffffffffffffffffffffffffffffff04831182151516156132d0576132cf61261f565b5b828202905092915050565b60006132e682611ff2565b91506132f183611ff2565b92508261330157613300613221565b5b828204905092915050565b7f546865207573657220646964206e6f742077696e20616e79206d6f6e65790000600082015250565b6000613342601e83612573565b915061334d8261330c565b602082019050919050565b6000602082019050818103600083015261337181613335565b9050919050565b7f436173696e6f20646f6573206e6f74206861766520656e6f7567682066756e6460008201527f7320746f2072657761726420757365722061667465722073756363657373667560208201527f6c20626574000000000000000000000000000000000000000000000000000000604082015250565b60006133fa604583612573565b915061340582613378565b606082019050919050565b60006020820190508181036000830152613429816133ed565b9050919050565b7f436173696e6f206661696c656420746f2073656e642045746865720000000000600082015250565b6000613466601b83612573565b915061347182613430565b602082019050919050565b6000602082019050818103600083015261349581613459565b9050919050565b60006134a782611ff2565b91506134b283611ff2565b9250827fffffffffffffffffffffffffffffffffffffffffffffffffffffffffffffffff038211156134e7576134e661261f565b5b82820190509291505056fea2646970667358221220d9189992d0f7e9db69b4c3d81a1709197ccfba25bb8704f4841c4e860eac3cb264736f6c634300080b0033",
  "immutableReferences": {
    "1301": [
      {
        "length": 32,
        "start": 1118
      },
      {
        "length": 32,
        "start": 1202
      }
    ]
  },
  "source": "// SPDX-License-Identifier: UNLICENSED\npragma solidity ^0.8.11;\n\nimport './SafeMath.sol';\nimport \"../node_modules/@chainlink/contracts/src/v0.8/interfaces/VRFCoordinatorV2Interface.sol\";\nimport \"../node_modules/@chainlink/contracts/src/v0.8/VRFConsumerBaseV2.sol\";\n\ncontract Roulette is VRFConsumerBaseV2{\n    \n    address public casinoAddress; //only this address can acept and end games\n    \n    /// @dev Min value user needs to deposit for creating game session.\n    uint128 public minStake;\n\n    /// @dev Max value user can deposit for creating game session.\n    uint128 public maxStake;\n\n    uint256 public gameId;\n\n    address payable[] public approvedAddresses;\n\n    uint64 subscriptionId = 1215;\n    bytes32 constant keyHash = 0x474e34a077df58807dbe9c96d3c009b23b3c6d0cce433e59bbf5b34f823bc56c; //keyhash\n    VRFCoordinatorV2Interface COORDINATOR;\n\n    uint32 constant callbackGasLimit = 1 * 10 ** 6;// how much gas they are willing to spend for you (cus they call function in your smart contract to send you the result)\n    uint32 constant numWords = 1; //number of random numbers generated\n    uint16 constant requestConfirmations = 3; //how many blocks need to be confirmed (So there can be no manipulations)\n\n    mapping (uint256 => Game) public Games;\n    mapping (uint256 => LinkRequest) public LinkRequests;\n\n    constructor () \n    VRFConsumerBaseV2(0x8103B0A8A00be2DDC778e6e7eaa21791Cd364625)\n    {\n        COORDINATOR = VRFCoordinatorV2Interface(0x8103B0A8A00be2DDC778e6e7eaa21791Cd364625);\n        casinoAddress = payable(msg.sender);\n        gameId = 0;\n\n        minStake = 1 * 10 ** 13; //0.00001 ETH (0.01862 USD as of 8 April)\n        maxStake = 1 * 10 ** 18; //equivalent to 1 eth (1,862 USD as of 8 April)\n    }\n\n    struct LinkRequest {\n        uint256 requestId;\n        bool exists;\n        bool requestFulfilled;\n        uint256 randomWord;\n    }\n    \n    struct Game {\n        uint256 gameId;\n        uint256[] bet;\n        uint256 betAmount;\n        address payable user;\n        bool win;\n        uint256 winnings;\n        bool gameDone;\n        uint256 requestId;\n        uint256 gameResult;\n    }\n    //may wantr to use indexed for gameFinished\n    event BetPlaced(uint256 gameId, uint256[] betPlaced, uint256 requestId, uint256 betValue, address payable user);\n    event RequestSent(uint256 indexed requestId);\n    event RequestStored(uint256 indexed requestId, uint256 indexed randomWords);\n    event GameFinished(uint256 indexed id, uint256[] bet, uint256 betAmount, address payable indexed user, bool indexed win, uint256 winnings);\n    event Recieved(address indexed depositor,uint256 indexed amount);\n    event Withdrawn(address indexed casino, uint256 indexed amount);\n    event OwnershipTransferredSuccessfully(address indexed previousOwner, address indexed newOwner);\n    event RegisterUser(address indexed user);\n    event VerifiedAddress(address recoveredAddress);\n\n    function placeBet(uint256[] memory _numbersSelected) public payable onlyValidUserStake(msg.value) onlyRegistered(msg.sender) onlyValidHouseFunds(msg.value){\n        require (msg.sender.balance > msg.value, \"Not enough money in wallet to place bet\");\n        require (_numbersSelected.length < 7 && _numbersSelected.length > 0 || _numbersSelected.length == 12 || _numbersSelected.length == 18, \"Need to make a valid bet\");\n\n        uint256 requestId = COORDINATOR.requestRandomWords(keyHash, subscriptionId, requestConfirmations, callbackGasLimit, numWords); //will revert if subscription is not set and funded\n        LinkRequests[requestId] = LinkRequest(requestId, true, false, 0);\n        emit RequestSent(requestId);\n        \n        gameId = SafeMath.add(gameId, 1);\n        Games[gameId] = Game(gameId, _numbersSelected, msg.value, payable(msg.sender), false, 0, false, requestId, 0);\n        emit BetPlaced(gameId, _numbersSelected, requestId, msg.value, payable (msg.sender));\n    }\n\n    function fulfillRandomWords(uint256 _requestId, uint256[] memory _randomWords) internal override {\n        require (LinkRequests[_requestId].exists, \"Request was not found\"); //checks whether a request has actually been made\n        LinkRequests[_requestId].randomWord = _randomWords[0];\n        LinkRequests[_requestId].requestFulfilled = true;\n        emit RequestStored(_requestId, LinkRequests[_requestId].randomWord);\n    }\n\n    function endGame(uint256 _gameId) public {\n        require (Games[_gameId].gameDone == false, \"Game has already been finished.\");\n        require (Games[_gameId].gameId != 0, \"Game does not exist.\");\n        require (LinkRequests[Games[_gameId].requestId].requestFulfilled == true, \"Random number has not yet been generated, try again after a short wait.\");\n        uint256 result = SafeMath.mod(LinkRequests[Games[_gameId].requestId].randomWord, 38); //This line extracts the randomly generated number that has been stored by the request struct\n\n        bool won = checkResult(result, Games[_gameId].bet);\n        if (won == true) {//Means that the user placed their bet successfully\n            uint256 payout = calculatePayout(Games[_gameId].bet.length);\n            payout = SafeMath.div(SafeMath.mul(payout, Games[_gameId].betAmount), 10);\n\n            safeTransferWinnings(payable (Games[_gameId].user), payout);\n\n            Games[_gameId].win = true;\n            Games[_gameId].winnings = SafeMath.sub(payout, Games[_gameId].betAmount);\n        } else {\n        }\n        Games[_gameId].gameDone = true;\n        Games[_gameId].gameResult = result;\n        emit GameFinished(_gameId, Games[_gameId].bet, Games[_gameId].betAmount, Games[_gameId].user, Games[_gameId].win, Games[_gameId].winnings);\n    }\n\n    function checkResult (uint256 _result, uint256[] memory _numbersSelected) private pure returns (bool) {\n        for (uint256 i = 0; i< 38 && i < _numbersSelected.length ; i++) {\n            if (_numbersSelected[i] == _result) {\n                return true;\n            }\n        }\n        return false; \n    }\n\n    function calculatePayout(uint256 _amountOfNumbersSelected) private pure returns (uint256) {\n        //All the payouts are multiplied by ten so that the odds 1.5 can be returned (solidity cannot handle floating point numbers)\n        //The payout is later divided by ten after being multiplide with the user's bet\n        //Odds are dependent on the amount of numbers selected not which ones. \n        if (_amountOfNumbersSelected == 18) {\n            //If red/black/odd/even numbers are bet on (payout is 1:1)\n            return 20;\n        } else if (_amountOfNumbersSelected == 12) {\n            //If the 1st/2nd/3rd dozen or the 1st/2nd/3rd column is bet on (payuout is 2:1)\n            return 15;\n        } else if (_amountOfNumbersSelected < 7 && _amountOfNumbersSelected > 0) {\n            // When selecting individual numbers up to 6 can be selected with the odds being (36/# numbers selected) - 1    \n            uint256 payout = SafeMath.div(36, _amountOfNumbersSelected);\n            payout = SafeMath.sub(payout, 1);\n            return SafeMath.mul(payout, 10);\n        }\n        return 0;\n    }\n\n    //Sends money from the casino to the user\n    function safeTransferWinnings(address payable _userAddress, uint256 _userPayout) private {\n        require (_userPayout > 0, \"The user did not win any money\");\n        require (casinoAddress.balance > _userPayout, \"Casino does not have enough funds to reward user after successful bet\");\n        (bool sent,) = _userAddress.call{value: _userPayout}(\"\");\n        require(sent, \"Casino failed to send Ether\");\n        }\n\n    function addFunds() public payable {\n        emit Recieved(msg.sender, msg.value);\n        //If users pay to the wrong function, consider it a donation.\n    }\n\n    function withdrawFundsWei(uint256 _withdrawAmount) public onlyCasino {\n        require (_withdrawAmount <= address(this).balance, \"Attempting to withdraw more funds than casino has available\");\n        (bool sent,) = casinoAddress.call{value: _withdrawAmount}(\"\");\n        require(sent, \"Failed to withdraw ether\");\n\n        emit Withdrawn(msg.sender, _withdrawAmount);\n    }\n    \n    function withdrawAllFunds() public onlyCasino {\n        require (0 < address(this).balance, \"Casino has no funds to withdraw\");\n        uint _withdrawAmount = address(this).balance;\n        (bool sent,) = casinoAddress.call{value: address(this).balance}(\"\");\n        require(sent, \"Failed to withdraw ether\");\n        emit Withdrawn(msg.sender, _withdrawAmount);\n    }\n\n    function registerUser(address payable _address, bytes32 _messageHash, uint8 _v, bytes32 _r, bytes32 _s) public onlyDapp(_messageHash, _v, _r, _s) {\n        approvedAddresses.push(_address);\n        emit RegisterUser(_address);\n    }\n\n    function unregisterUser(address payable _address) public onlyCasino{\n        for (uint i; i < approvedAddresses.length; i++) {\n            if (_address == approvedAddresses[i]) {\n                approvedAddresses[i] = approvedAddresses[approvedAddresses.length - 1];\n                approvedAddresses.pop();\n                //no break in case there are multiple instances of a single address\n            }\n        }\n    }\n\n    function verifyUser(address _address) private view returns (bool) {\n        for (uint i; i < approvedAddresses.length; i++) {\n            if (_address == approvedAddresses[i]) {\n                return true;\n            }\n        }\n        return false;\n    }\n\n    function getApprovedUsers() public view returns( address payable[] memory) {\n        return approvedAddresses;\n    }\n\n    function changeOwner(address payable _newOwner) public onlyCasino {\n        require(_newOwner != address(0), \"Need to transfer ownership to a valid address\");\n        emit OwnershipTransferredSuccessfully(casinoAddress, _newOwner);\n        casinoAddress = _newOwner;\n    }\n\n    modifier onlyDapp(bytes32 _messageHash, uint8 _v, bytes32 _r, bytes32 _s) {\n    address recoveredAddress = ecrecover(_messageHash, _v, _r, _s);\n    require(recoveredAddress == casinoAddress, \"Only the Dapp can register a user\");\n        _;\n    }\n    //ensures only 1% of house funds can be bet\n    modifier onlyValidHouseFunds (uint256 _userBet) {\n        require (SafeMath.mul(_userBet, 100) <= address(this).balance, \"Casino does not have enough funds\");\n        _;\n    }\n    modifier onlyRegistered(address _address) {\n        require (verifyUser(_address) == true, \"User is not verified\");\n        _;\n    }\n    modifier onlyValidUserStake (uint256 _userBet) {\n        require (_userBet >= minStake, \"Stake is below the minimum stake\");\n        require (_userBet <= maxStake, \"Stake is above the maximum stake\");\n        _;\n    }\n    modifier onlyCasino() {\n        require(msg.sender == casinoAddress, \"Address is not the casino\");\n        _;\n    }\n}",
  "sourcePath": "/Users/jeroenmijer/Uni y3/roulette-dapp/blockchain-truffle/contracts/Roulette.sol",
  "compiler": {
    "name": "solc",
    "version": "0.8.11+commit.d7f03943.Emscripten.clang"
  },
  "schemaVersion": "3.4.13",
  "updatedAt": "2023-05-15T20:38:26.725Z",
  "networkType": "ethereum",
  "devdoc": {
    "kind": "dev",
    "methods": {},
    "stateVariables": {
      "maxStake": {
        "details": "Max value user can deposit for creating game session."
      },
      "minStake": {
        "details": "Min value user needs to deposit for creating game session."
      }
    },
    "version": 1
  },
  "userdoc": {
    "kind": "user",
    "methods": {},
    "version": 1
  }
}