{
  "contractName": "RouletteSubscription",
  "abi": [
    {
      "inputs": [],
      "stateMutability": "nonpayable",
      "type": "constructor"
    },
    {
      "inputs": [
        {
          "internalType": "address",
          "name": "have",
          "type": "address"
        },
        {
          "internalType": "address",
          "name": "want",
          "type": "address"
        }
      ],
      "name": "OnlyCoordinatorCanFulfill",
      "type": "error"
    },
    {
      "anonymous": false,
      "inputs": [
        {
          "indexed": true,
          "internalType": "address",
          "name": "previousOwner",
          "type": "address"
        },
        {
          "indexed": true,
          "internalType": "address",
          "name": "newOwner",
          "type": "address"
        }
      ],
      "name": "OwnershipTransferredSuccessfully",
      "type": "event"
    },
    {
      "anonymous": false,
      "inputs": [
        {
          "indexed": false,
          "internalType": "address",
          "name": "depositor",
          "type": "address"
        },
        {
          "indexed": false,
          "internalType": "uint256",
          "name": "amount",
          "type": "uint256"
        }
      ],
      "name": "Recieved",
      "type": "event"
    },
    {
      "anonymous": false,
      "inputs": [
        {
          "indexed": false,
          "internalType": "address",
          "name": "user",
          "type": "address"
        }
      ],
      "name": "RegisterUser",
      "type": "event"
    },
    {
      "anonymous": false,
      "inputs": [
        {
          "indexed": false,
          "internalType": "uint256",
          "name": "requestId",
          "type": "uint256"
        },
        {
          "indexed": false,
          "internalType": "uint256",
          "name": "randomWords",
          "type": "uint256"
        }
      ],
      "name": "RequestFulfilled",
      "type": "event"
    },
    {
      "anonymous": false,
      "inputs": [
        {
          "indexed": false,
          "internalType": "uint256",
          "name": "requestId",
          "type": "uint256"
        }
      ],
      "name": "RequestSent",
      "type": "event"
    },
    {
      "anonymous": false,
      "inputs": [
        {
          "indexed": false,
          "internalType": "address",
          "name": "casino",
          "type": "address"
        },
        {
          "indexed": false,
          "internalType": "uint256",
          "name": "amount",
          "type": "uint256"
        }
      ],
      "name": "Withdrawn",
      "type": "event"
    },
    {
      "anonymous": false,
      "inputs": [
        {
          "indexed": false,
          "internalType": "uint256",
          "name": "gameId",
          "type": "uint256"
        },
        {
          "indexed": false,
          "internalType": "uint256[]",
          "name": "betPlaced",
          "type": "uint256[]"
        },
        {
          "indexed": false,
          "internalType": "uint256",
          "name": "betValue",
          "type": "uint256"
        },
        {
          "indexed": false,
          "internalType": "address payable",
          "name": "user",
          "type": "address"
        }
      ],
      "name": "betPlaced",
      "type": "event"
    },
    {
      "anonymous": false,
      "inputs": [
        {
          "indexed": false,
          "internalType": "uint256",
          "name": "id",
          "type": "uint256"
        },
        {
          "indexed": false,
          "internalType": "uint256[]",
          "name": "bet",
          "type": "uint256[]"
        },
        {
          "indexed": false,
          "internalType": "uint256",
          "name": "betAmount",
          "type": "uint256"
        },
        {
          "indexed": false,
          "internalType": "address payable",
          "name": "user",
          "type": "address"
        },
        {
          "indexed": false,
          "internalType": "bool",
          "name": "win",
          "type": "bool"
        },
        {
          "indexed": false,
          "internalType": "uint256",
          "name": "winnings",
          "type": "uint256"
        }
      ],
      "name": "gameFinished",
      "type": "event"
    },
    {
      "inputs": [
        {
          "internalType": "uint256",
          "name": "",
          "type": "uint256"
        }
      ],
      "name": "Games",
      "outputs": [
        {
          "internalType": "uint256",
          "name": "gameId",
          "type": "uint256"
        },
        {
          "internalType": "uint256",
          "name": "betAmount",
          "type": "uint256"
        },
        {
          "internalType": "address payable",
          "name": "user",
          "type": "address"
        },
        {
          "internalType": "bool",
          "name": "win",
          "type": "bool"
        },
        {
          "internalType": "uint256",
          "name": "winnings",
          "type": "uint256"
        },
        {
          "internalType": "bool",
          "name": "gameDone",
          "type": "bool"
        },
        {
          "internalType": "uint256",
          "name": "requestId",
          "type": "uint256"
        },
        {
          "internalType": "uint256",
          "name": "gameResult",
          "type": "uint256"
        }
      ],
      "stateMutability": "view",
      "type": "function"
    },
    {
      "inputs": [
        {
          "internalType": "uint256",
          "name": "",
          "type": "uint256"
        }
      ],
      "name": "LinkRequests",
      "outputs": [
        {
          "internalType": "uint256",
          "name": "requestId",
          "type": "uint256"
        },
        {
          "internalType": "bool",
          "name": "exists",
          "type": "bool"
        },
        {
          "internalType": "bool",
          "name": "requestFulfilled",
          "type": "bool"
        },
        {
          "internalType": "uint256",
          "name": "randomWord",
          "type": "uint256"
        }
      ],
      "stateMutability": "view",
      "type": "function"
    },
    {
      "inputs": [
        {
          "internalType": "uint256",
          "name": "",
          "type": "uint256"
        }
      ],
      "name": "approvedAddresses",
      "outputs": [
        {
          "internalType": "address payable",
          "name": "",
          "type": "address"
        }
      ],
      "stateMutability": "view",
      "type": "function"
    },
    {
      "inputs": [],
      "name": "casinoAddress",
      "outputs": [
        {
          "internalType": "address",
          "name": "",
          "type": "address"
        }
      ],
      "stateMutability": "view",
      "type": "function"
    },
    {
      "inputs": [],
      "name": "gameId",
      "outputs": [
        {
          "internalType": "uint256",
          "name": "",
          "type": "uint256"
        }
      ],
      "stateMutability": "view",
      "type": "function"
    },
    {
      "inputs": [],
      "name": "maxStake",
      "outputs": [
        {
          "internalType": "uint128",
          "name": "",
          "type": "uint128"
        }
      ],
      "stateMutability": "view",
      "type": "function"
    },
    {
      "inputs": [],
      "name": "minStake",
      "outputs": [
        {
          "internalType": "uint128",
          "name": "",
          "type": "uint128"
        }
      ],
      "stateMutability": "view",
      "type": "function"
    },
    {
      "inputs": [
        {
          "internalType": "uint256",
          "name": "requestId",
          "type": "uint256"
        },
        {
          "internalType": "uint256[]",
          "name": "randomWords",
          "type": "uint256[]"
        }
      ],
      "name": "rawFulfillRandomWords",
      "outputs": [],
      "stateMutability": "nonpayable",
      "type": "function"
    },
    {
      "inputs": [
        {
          "internalType": "uint256[]",
          "name": "_numbersSelected",
          "type": "uint256[]"
        }
      ],
      "name": "placeBet",
      "outputs": [],
      "stateMutability": "payable",
      "type": "function"
    },
    {
      "inputs": [
        {
          "internalType": "uint256",
          "name": "_gameId",
          "type": "uint256"
        }
      ],
      "name": "endGame",
      "outputs": [],
      "stateMutability": "nonpayable",
      "type": "function"
    },
    {
      "inputs": [],
      "name": "AddFunds",
      "outputs": [],
      "stateMutability": "payable",
      "type": "function"
    },
    {
      "inputs": [
        {
          "internalType": "uint256",
          "name": "_withdrawAmount",
          "type": "uint256"
        }
      ],
      "name": "withdrawFundsWei",
      "outputs": [],
      "stateMutability": "nonpayable",
      "type": "function"
    },
    {
      "inputs": [],
      "name": "withdrawAllFunds",
      "outputs": [],
      "stateMutability": "nonpayable",
      "type": "function"
    },
    {
      "inputs": [
        {
          "internalType": "address payable",
          "name": "_address",
          "type": "address"
        }
      ],
      "name": "registerUser",
      "outputs": [],
      "stateMutability": "nonpayable",
      "type": "function"
    },
    {
      "inputs": [
        {
          "internalType": "address payable",
          "name": "_address",
          "type": "address"
        }
      ],
      "name": "unregisterUser",
      "outputs": [],
      "stateMutability": "nonpayable",
      "type": "function"
    },
    {
      "inputs": [],
      "name": "getApprovedUsers",
      "outputs": [
        {
          "internalType": "address payable[]",
          "name": "",
          "type": "address[]"
        }
      ],
      "stateMutability": "view",
      "type": "function"
    },
    {
      "inputs": [
        {
          "internalType": "address payable",
          "name": "_newOwner",
          "type": "address"
        }
      ],
      "name": "changeOwner",
      "outputs": [],
      "stateMutability": "nonpayable",
      "type": "function"
    },
    {
      "inputs": [
        {
          "internalType": "uint256",
          "name": "_requestId",
          "type": "uint256"
        }
      ],
      "name": "getChainLinkStatus",
      "outputs": [
        {
          "internalType": "bool",
          "name": "",
          "type": "bool"
        }
      ],
      "stateMutability": "view",
      "type": "function"
    },
    {
      "inputs": [
        {
          "internalType": "uint256",
          "name": "_gameId",
          "type": "uint256"
        }
      ],
      "name": "getGameStatus",
      "outputs": [
        {
          "internalType": "bool",
          "name": "",
          "type": "bool"
        }
      ],
      "stateMutability": "view",
      "type": "function"
    }
  ],
  "bytecode": "0x60a06040526104bf600460006101000a81548167ffffffffffffffff021916908367ffffffffffffffff16021790555034801561003b57600080fd5b50738103b0a8a00be2ddc778e6e7eaa21791cd3646258073ffffffffffffffffffffffffffffffffffffffff1660808173ffffffffffffffffffffffffffffffffffffffff168152505050738103b0a8a00be2ddc778e6e7eaa21791cd364625600460086101000a81548173ffffffffffffffffffffffffffffffffffffffff021916908373ffffffffffffffffffffffffffffffffffffffff160217905550336000806101000a81548173ffffffffffffffffffffffffffffffffffffffff021916908373ffffffffffffffffffffffffffffffffffffffff16021790555060006002819055506509184e72a000600160006101000a8154816fffffffffffffffffffffffffffffffff02191690836fffffffffffffffffffffffffffffffff160217905550670de0b6b3a7640000600160106101000a8154816fffffffffffffffffffffffffffffffff02191690836fffffffffffffffffffffffffffffffff1602179055506080516134036101c56000396000818161051b015261056f01526134036000f3fe6080604052600436106101145760003560e01c80636ade21e4116100a0578063a6f9dae111610064578063a6f9dae11461039a578063d0399bb8146103c3578063d7c81b55146103ec578063ea1b28e014610417578063f72ea9dc1461044257610114565b80636ade21e4146102bf5780638421ea15146102ea57806395bf190e1461032a5780639cd0948314610367578063a65517841461037157610114565b806321f2ca3b116100e757806321f2ca3b146101d35780632983c911146101fc57806329d4f4c314610239578063375b3c0a1461027d57806349649fbf146102a857610114565b80630f1bf4541461011957806316d119fa146101565780631fe543e3146101815780632199d5cd146101aa575b600080fd5b34801561012557600080fd5b50610140600480360381019061013b9190611ebd565b61045e565b60405161014d9190611f05565b60405180910390f35b34801561016257600080fd5b5061016b61048b565b6040516101789190612010565b60405180910390f35b34801561018d57600080fd5b506101a860048036038101906101a3919061218b565b610519565b005b3480156101b657600080fd5b506101d160048036038101906101cc9190612213565b6105d9565b005b3480156101df57600080fd5b506101fa60048036038101906101f59190612213565b610704565b005b34801561020857600080fd5b50610223600480360381019061021e9190611ebd565b61086d565b6040516102309190611f05565b60405180910390f35b34801561024557600080fd5b50610260600480360381019061025b9190611ebd565b61089a565b60405161027498979695949392919061225e565b60405180910390f35b34801561028957600080fd5b5061029261091c565b60405161029f9190612307565b60405180910390f35b3480156102b457600080fd5b506102bd61093e565b005b3480156102cb57600080fd5b506102d4610b18565b6040516102e19190612343565b60405180910390f35b3480156102f657600080fd5b50610311600480360381019061030c9190611ebd565b610b3c565b604051610321949392919061235e565b60405180910390f35b34801561033657600080fd5b50610351600480360381019061034c9190611ebd565b610b86565b60405161035e91906123a3565b60405180910390f35b61036f610bc5565b005b34801561037d57600080fd5b5061039860048036038101906103939190611ebd565b610c00565b005b3480156103a657600080fd5b506103c160048036038101906103bc9190612213565b610ddb565b005b3480156103cf57600080fd5b506103ea60048036038101906103e59190611ebd565b610f96565b005b3480156103f857600080fd5b506104016113c0565b60405161040e91906123be565b60405180910390f35b34801561042357600080fd5b5061042c6113c6565b6040516104399190612307565b60405180910390f35b61045c600480360381019061045791906123d9565b6113e8565b005b60006005600083815260200190815260200160002060050160009054906101000a900460ff169050919050565b6060600380548060200260200160405190810160405280929190818152602001828054801561050f57602002820191906000526020600020905b8160009054906101000a900473ffffffffffffffffffffffffffffffffffffffff1673ffffffffffffffffffffffffffffffffffffffff16815260200190600101908083116104c5575b5050505050905090565b7f000000000000000000000000000000000000000000000000000000000000000073ffffffffffffffffffffffffffffffffffffffff163373ffffffffffffffffffffffffffffffffffffffff16146105cb57337f00000000000000000000000000000000000000000000000000000000000000006040517f1cf993f40000000000000000000000000000000000000000000000000000000081526004016105c2929190612422565b60405180910390fd5b6105d5828261198c565b5050565b60008054906101000a900473ffffffffffffffffffffffffffffffffffffffff1673ffffffffffffffffffffffffffffffffffffffff163373ffffffffffffffffffffffffffffffffffffffff1614610667576040517f08c379a000000000000000000000000000000000000000000000000000000000815260040161065e906124a8565b60405180910390fd5b6003819080600181540180825580915050600190039060005260206000200160009091909190916101000a81548173ffffffffffffffffffffffffffffffffffffffff021916908373ffffffffffffffffffffffffffffffffffffffff1602179055507f39e88f253dc4ea790c2b355aec8c5ac86335a9925c3815b62b74bcdfaffe68ec816040516106f99190612527565b60405180910390a150565b60008054906101000a900473ffffffffffffffffffffffffffffffffffffffff1673ffffffffffffffffffffffffffffffffffffffff163373ffffffffffffffffffffffffffffffffffffffff1614610792576040517f08c379a0000000000000000000000000000000000000000000000000000000008152600401610789906124a8565b60405180910390fd5b60005b60038054905081101561086957600381815481106107b6576107b5612542565b5b9060005260206000200160009054906101000a900473ffffffffffffffffffffffffffffffffffffffff1673ffffffffffffffffffffffffffffffffffffffff168273ffffffffffffffffffffffffffffffffffffffff161415610856576003818154811061082857610827612542565b5b9060005260206000200160006101000a81549073ffffffffffffffffffffffffffffffffffffffff02191690555b8080610861906125a0565b915050610795565b5050565b60006006600083815260200190815260200160002060010160019054906101000a900460ff169050919050565b60056020528060005260406000206000915090508060000154908060020154908060030160009054906101000a900473ffffffffffffffffffffffffffffffffffffffff16908060030160149054906101000a900460ff16908060040154908060050160009054906101000a900460ff16908060060154908060070154905088565b600160009054906101000a90046fffffffffffffffffffffffffffffffff1681565b60008054906101000a900473ffffffffffffffffffffffffffffffffffffffff1673ffffffffffffffffffffffffffffffffffffffff163373ffffffffffffffffffffffffffffffffffffffff16146109cc576040517f08c379a00000000000000000000000000000000000000000000000000000000081526004016109c3906124a8565b60405180910390fd5b47600010610a0f576040517f08c379a0000000000000000000000000000000000000000000000000000000008152600401610a0690612635565b60405180910390fd5b60008060009054906101000a900473ffffffffffffffffffffffffffffffffffffffff1673ffffffffffffffffffffffffffffffffffffffff1647604051610a5690612686565b60006040518083038185875af1925050503d8060008114610a93576040519150601f19603f3d011682016040523d82523d6000602084013e610a98565b606091505b5050905080610adc576040517f08c379a0000000000000000000000000000000000000000000000000000000008152600401610ad3906126e7565b60405180910390fd5b7f7084f5476618d8e60b11ef0d7d3f06914655adb8793e28ff7f018d4c76d505d53347604051610b0d929190612707565b60405180910390a150565b60008054906101000a900473ffffffffffffffffffffffffffffffffffffffff1681565b60066020528060005260406000206000915090508060000154908060010160009054906101000a900460ff16908060010160019054906101000a900460ff16908060020154905084565b60038181548110610b9657600080fd5b906000526020600020016000915054906101000a900473ffffffffffffffffffffffffffffffffffffffff1681565b7fe03f2fbffd55aceaa08b8e27b348ae6b7607e8a520dfe6a92b053c2ce0ac850a3334604051610bf6929190612707565b60405180910390a1565b60008054906101000a900473ffffffffffffffffffffffffffffffffffffffff1673ffffffffffffffffffffffffffffffffffffffff163373ffffffffffffffffffffffffffffffffffffffff1614610c8e576040517f08c379a0000000000000000000000000000000000000000000000000000000008152600401610c85906124a8565b60405180910390fd5b47811115610cd1576040517f08c379a0000000000000000000000000000000000000000000000000000000008152600401610cc8906127a2565b60405180910390fd5b60008060009054906101000a900473ffffffffffffffffffffffffffffffffffffffff1673ffffffffffffffffffffffffffffffffffffffff1682604051610d1890612686565b60006040518083038185875af1925050503d8060008114610d55576040519150601f19603f3d011682016040523d82523d6000602084013e610d5a565b606091505b5050905080610d9e576040517f08c379a0000000000000000000000000000000000000000000000000000000008152600401610d95906126e7565b60405180910390fd5b7f7084f5476618d8e60b11ef0d7d3f06914655adb8793e28ff7f018d4c76d505d53383604051610dcf929190612707565b60405180910390a15050565b60008054906101000a900473ffffffffffffffffffffffffffffffffffffffff1673ffffffffffffffffffffffffffffffffffffffff163373ffffffffffffffffffffffffffffffffffffffff1614610e69576040517f08c379a0000000000000000000000000000000000000000000000000000000008152600401610e60906124a8565b60405180910390fd5b600073ffffffffffffffffffffffffffffffffffffffff168173ffffffffffffffffffffffffffffffffffffffff161415610ed9576040517f08c379a0000000000000000000000000000000000000000000000000000000008152600401610ed090612834565b60405180910390fd5b8073ffffffffffffffffffffffffffffffffffffffff1660008054906101000a900473ffffffffffffffffffffffffffffffffffffffff1673ffffffffffffffffffffffffffffffffffffffff167f1713136758fb583fcecf2c9a737cbb86b4d4ac5b3296135287532cf17591dbfb60405160405180910390a3806000806101000a81548173ffffffffffffffffffffffffffffffffffffffff021916908373ffffffffffffffffffffffffffffffffffffffff16021790555050565b600015156005600083815260200190815260200160002060050160009054906101000a900460ff16151514611000576040517f08c379a0000000000000000000000000000000000000000000000000000000008152600401610ff7906128a0565b60405180910390fd5b60006005600083815260200190815260200160002060000154141561105a576040517f08c379a00000000000000000000000000000000000000000000000000000000081526004016110519061290c565b60405180910390fd5b60011515600660006005600085815260200190815260200160002060060154815260200190815260200160002060010160019054906101000a900460ff161515146110da576040517f08c379a00000000000000000000000000000000000000000000000000000000081526004016110d1906129c4565b60405180910390fd5b60006111136006600060056000868152602001908152602001600020600601548152602001908152602001600020600201546026611aa7565b90506000611185826005600086815260200190815260200160002060010180548060200260200160405190810160405280929190818152602001828054801561117b57602002820191906000526020600020905b815481526020019060010190808311611167575b5050505050611abd565b90506001151581151514156112955760006111b86005600086815260200190815260200160002060010180549050611b25565b90506111e46111dd826005600088815260200190815260200160002060020154611b99565b600a611baf565b90506112266005600086815260200190815260200160002060030160009054906101000a900473ffffffffffffffffffffffffffffffffffffffff1682611bc5565b60016005600086815260200190815260200160002060030160146101000a81548160ff021916908315150217905550611275816005600087815260200190815260200160002060020154611d32565b600560008681526020019081526020016000206004018190555050611296565b5b60016005600085815260200190815260200160002060050160006101000a81548160ff0219169083151502179055508160056000858152602001908152602001600020600701819055507f252f71a4cfedb4c84acae4b1247271c3587486d403a9559d879121c1a95fa5d7836005600086815260200190815260200160002060010160056000878152602001908152602001600020600201546005600088815260200190815260200160002060030160009054906101000a900473ffffffffffffffffffffffffffffffffffffffff166005600089815260200190815260200160002060030160149054906101000a900460ff16600560008a8152602001908152602001600020600401546040516113b396959493929190612af2565b60405180910390a1505050565b60025481565b600160109054906101000a90046fffffffffffffffffffffffffffffffff1681565b34600160009054906101000a90046fffffffffffffffffffffffffffffffff166fffffffffffffffffffffffffffffffff1681101561145c576040517f08c379a000000000000000000000000000000000000000000000000000000000815260040161145390612ba6565b60405180910390fd5b600160109054906101000a90046fffffffffffffffffffffffffffffffff166fffffffffffffffffffffffffffffffff168111156114cf576040517f08c379a00000000000000000000000000000000000000000000000000000000081526004016114c690612c12565b60405180910390fd5b34476114dc826001611b99565b111561151d576040517f08c379a000000000000000000000000000000000000000000000000000000000815260040161151490612ca4565b60405180910390fd5b343373ffffffffffffffffffffffffffffffffffffffff163111611576576040517f08c379a000000000000000000000000000000000000000000000000000000000815260040161156d90612d36565b60405180910390fd5b60078351108015611588575060008351115b806115945750600c8351145b806115a0575060128351145b6115df576040517f08c379a00000000000000000000000000000000000000000000000000000000081526004016115d690612da2565b60405180910390fd5b60006115ea33611d48565b90506001151581151514611633576040517f08c379a000000000000000000000000000000000000000000000000000000000815260040161162a90612e34565b60405180910390fd5b6000600460089054906101000a900473ffffffffffffffffffffffffffffffffffffffff1673ffffffffffffffffffffffffffffffffffffffff16635d3b1d307f474e34a077df58807dbe9c96d3c009b23b3c6d0cce433e59bbf5b34f823bc56c60001b600460009054906101000a900467ffffffffffffffff166003620f424060016040518663ffffffff1660e01b81526004016116d6959493929190612ecc565b6020604051808303816000875af11580156116f5573d6000803e3d6000fd5b505050506040513d601f19601f820116820180604052508101906117199190612f34565b905060405180608001604052808281526020016001151581526020016000151581526020016000815250600660008381526020019081526020016000206000820151816000015560208201518160010160006101000a81548160ff02191690831515021790555060408201518160010160016101000a81548160ff021916908315150217905550606082015181600201559050507f0cd21a41891ff04ecd9a8754bec97e2fb85d2a4e7694329d4dc364c796f23d06816040516117dc91906123be565b60405180910390a16117f16002546001611df3565b60028190555060405180610120016040528060025481526020018681526020013481526020013373ffffffffffffffffffffffffffffffffffffffff168152602001600015158152602001600081526020016000151581526020018281526020016000815250600560006002548152602001908152602001600020600082015181600001556020820151816001019080519060200190611892929190611e09565b506040820151816002015560608201518160030160006101000a81548173ffffffffffffffffffffffffffffffffffffffff021916908373ffffffffffffffffffffffffffffffffffffffff16021790555060808201518160030160146101000a81548160ff02191690831515021790555060a0820151816004015560c08201518160050160006101000a81548160ff02191690831515021790555060e0820151816006015561010082015181600701559050507f186a6da00ff6e9cdee6a1e9614d5c92f877737d98d7b4072bce9b577fb0b42e260025486343360405161197d9493929190612fe7565b60405180910390a15050505050565b6006600083815260200190815260200160002060010160009054906101000a900460ff166119ef576040517f08c379a00000000000000000000000000000000000000000000000000000000081526004016119e69061307f565b60405180910390fd5b80600081518110611a0357611a02612542565b5b6020026020010151600660008481526020019081526020016000206002018190555060016006600084815260200190815260200160002060010160016101000a81548160ff0219169083151502179055507f5c69e7026b653d8606b5613bb00fd8c4b0504b1cbe8db600c406faac180924d5826006600085815260200190815260200160002060020154604051611a9b92919061309f565b60405180910390a15050565b60008183611ab591906130f7565b905092915050565b600080600090505b602681108015611ad55750825181105b15611b195783838281518110611aee57611aed612542565b5b60200260200101511415611b06576001915050611b1f565b8080611b11906125a0565b915050611ac5565b50600090505b92915050565b60006012821415611b395760149050611b94565b600c821415611b4b57600f9050611b94565b600782108015611b5b5750600082115b15611b8f576000611b6d602484611baf565b9050611b7a816001611d32565b9050611b8781600a611b99565b915050611b94565b600090505b919050565b60008183611ba79190613128565b905092915050565b60008183611bbd9190613182565b905092915050565b60008111611c08576040517f08c379a0000000000000000000000000000000000000000000000000000000008152600401611bff906131ff565b60405180910390fd5b8060008054906101000a900473ffffffffffffffffffffffffffffffffffffffff1673ffffffffffffffffffffffffffffffffffffffff163111611c81576040517f08c379a0000000000000000000000000000000000000000000000000000000008152600401611c78906132b7565b60405180910390fd5b60008273ffffffffffffffffffffffffffffffffffffffff1682604051611ca790612686565b60006040518083038185875af1925050503d8060008114611ce4576040519150601f19603f3d011682016040523d82523d6000602084013e611ce9565b606091505b5050905080611d2d576040517f08c379a0000000000000000000000000000000000000000000000000000000008152600401611d2490613323565b60405180910390fd5b505050565b60008183611d409190613343565b905092915050565b6000805b600380549050811015611de85760038181548110611d6d57611d6c612542565b5b9060005260206000200160009054906101000a900473ffffffffffffffffffffffffffffffffffffffff1673ffffffffffffffffffffffffffffffffffffffff168373ffffffffffffffffffffffffffffffffffffffff161415611dd5576001915050611dee565b8080611de0906125a0565b915050611d4c565b50600090505b919050565b60008183611e019190613377565b905092915050565b828054828255906000526020600020908101928215611e45579160200282015b82811115611e44578251825591602001919060010190611e29565b5b509050611e529190611e56565b5090565b5b80821115611e6f576000816000905550600101611e57565b5090565b6000604051905090565b600080fd5b600080fd5b6000819050919050565b611e9a81611e87565b8114611ea557600080fd5b50565b600081359050611eb781611e91565b92915050565b600060208284031215611ed357611ed2611e7d565b5b6000611ee184828501611ea8565b91505092915050565b60008115159050919050565b611eff81611eea565b82525050565b6000602082019050611f1a6000830184611ef6565b92915050565b600081519050919050565b600082825260208201905092915050565b6000819050602082019050919050565b600073ffffffffffffffffffffffffffffffffffffffff82169050919050565b6000611f7782611f4c565b9050919050565b611f8781611f6c565b82525050565b6000611f998383611f7e565b60208301905092915050565b6000602082019050919050565b6000611fbd82611f20565b611fc78185611f2b565b9350611fd283611f3c565b8060005b83811015612003578151611fea8882611f8d565b9750611ff583611fa5565b925050600181019050611fd6565b5085935050505092915050565b6000602082019050818103600083015261202a8184611fb2565b905092915050565b600080fd5b6000601f19601f8301169050919050565b7f4e487b7100000000000000000000000000000000000000000000000000000000600052604160045260246000fd5b61208082612037565b810181811067ffffffffffffffff8211171561209f5761209e612048565b5b80604052505050565b60006120b2611e73565b90506120be8282612077565b919050565b600067ffffffffffffffff8211156120de576120dd612048565b5b602082029050602081019050919050565b600080fd5b6000612107612102846120c3565b6120a8565b9050808382526020820190506020840283018581111561212a576121296120ef565b5b835b81811015612153578061213f8882611ea8565b84526020840193505060208101905061212c565b5050509392505050565b600082601f83011261217257612171612032565b5b81356121828482602086016120f4565b91505092915050565b600080604083850312156121a2576121a1611e7d565b5b60006121b085828601611ea8565b925050602083013567ffffffffffffffff8111156121d1576121d0611e82565b5b6121dd8582860161215d565b9150509250929050565b6121f081611f6c565b81146121fb57600080fd5b50565b60008135905061220d816121e7565b92915050565b60006020828403121561222957612228611e7d565b5b6000612237848285016121fe565b91505092915050565b61224981611e87565b82525050565b61225881611f6c565b82525050565b600061010082019050612274600083018b612240565b612281602083018a612240565b61228e604083018961224f565b61229b6060830188611ef6565b6122a86080830187612240565b6122b560a0830186611ef6565b6122c260c0830185612240565b6122cf60e0830184612240565b9998505050505050505050565b60006fffffffffffffffffffffffffffffffff82169050919050565b612301816122dc565b82525050565b600060208201905061231c60008301846122f8565b92915050565b600061232d82611f4c565b9050919050565b61233d81612322565b82525050565b60006020820190506123586000830184612334565b92915050565b60006080820190506123736000830187612240565b6123806020830186611ef6565b61238d6040830185611ef6565b61239a6060830184612240565b95945050505050565b60006020820190506123b8600083018461224f565b92915050565b60006020820190506123d36000830184612240565b92915050565b6000602082840312156123ef576123ee611e7d565b5b600082013567ffffffffffffffff81111561240d5761240c611e82565b5b6124198482850161215d565b91505092915050565b60006040820190506124376000830185612334565b6124446020830184612334565b9392505050565b600082825260208201905092915050565b7f747269656420746f2073656e6420627574206e6f742074686520636173696e6f600082015250565b600061249260208361244b565b915061249d8261245c565b602082019050919050565b600060208201905081810360008301526124c181612485565b9050919050565b6000819050919050565b60006124ed6124e86124e384611f4c565b6124c8565b611f4c565b9050919050565b60006124ff826124d2565b9050919050565b6000612511826124f4565b9050919050565b61252181612506565b82525050565b600060208201905061253c6000830184612518565b92915050565b7f4e487b7100000000000000000000000000000000000000000000000000000000600052603260045260246000fd5b7f4e487b7100000000000000000000000000000000000000000000000000000000600052601160045260246000fd5b60006125ab82611e87565b91507fffffffffffffffffffffffffffffffffffffffffffffffffffffffffffffffff8214156125de576125dd612571565b5b600182019050919050565b7f436173696e6f20686173206e6f2066756e647320746f20776974686472617700600082015250565b600061261f601f8361244b565b915061262a826125e9565b602082019050919050565b6000602082019050818103600083015261264e81612612565b9050919050565b600081905092915050565b50565b6000612670600083612655565b915061267b82612660565b600082019050919050565b600061269182612663565b9150819050919050565b7f4661696c656420746f2077697468647261772065746865720000000000000000600082015250565b60006126d160188361244b565b91506126dc8261269b565b602082019050919050565b60006020820190508181036000830152612700816126c4565b9050919050565b600060408201905061271c6000830185612334565b6127296020830184612240565b9392505050565b7f417474656d7074696e6720746f207769746864726177206d6f72652066756e6460008201527f73207468616e20636173696e6f2068617320617661696c61626c650000000000602082015250565b600061278c603b8361244b565b915061279782612730565b604082019050919050565b600060208201905081810360008301526127bb8161277f565b9050919050565b7f4e65656420746f207472616e73666572206f776e65727368697020746f20612060008201527f76616c6964206164647265737300000000000000000000000000000000000000602082015250565b600061281e602d8361244b565b9150612829826127c2565b604082019050919050565b6000602082019050818103600083015261284d81612811565b9050919050565b7f47616d652068617320616c7265616479206265656e2066696e69736865642e00600082015250565b600061288a601f8361244b565b915061289582612854565b602082019050919050565b600060208201905081810360008301526128b98161287d565b9050919050565b7f47616d6520646f6573206e6f742065786973742e000000000000000000000000600082015250565b60006128f660148361244b565b9150612901826128c0565b602082019050919050565b60006020820190508181036000830152612925816128e9565b9050919050565b7f52616e646f6d206e756d62657220686173206e6f7420796574206265656e206760008201527f656e6572617465642c2074727920616761696e20616674657220612073686f7260208201527f7420776169742e00000000000000000000000000000000000000000000000000604082015250565b60006129ae60478361244b565b91506129b98261292c565b606082019050919050565b600060208201905081810360008301526129dd816129a1565b9050919050565b600081549050919050565b600082825260208201905092915050565b60008190508160005260206000209050919050565b612a1e81611e87565b82525050565b6000612a308383612a15565b60208301905092915050565b60008160001c9050919050565b6000819050919050565b6000612a66612a6183612a3c565b612a49565b9050919050565b6000612a798254612a53565b9050919050565b6000600182019050919050565b6000612a98826129e4565b612aa281856129ef565b9350612aad83612a00565b8060005b83811015612ae557612ac282612a6d565b612acc8882612a24565b9750612ad783612a80565b925050600181019050612ab1565b5085935050505092915050565b600060c082019050612b076000830189612240565b8181036020830152612b198188612a8d565b9050612b286040830187612240565b612b35606083018661224f565b612b426080830185611ef6565b612b4f60a0830184612240565b979650505050505050565b7f5374616b652069732062656c6f7720746865206d696e696d756d207374616b65600082015250565b6000612b9060208361244b565b9150612b9b82612b5a565b602082019050919050565b60006020820190508181036000830152612bbf81612b83565b9050919050565b7f5374616b652069732061626f766520746865206d6178696d756d207374616b65600082015250565b6000612bfc60208361244b565b9150612c0782612bc6565b602082019050919050565b60006020820190508181036000830152612c2b81612bef565b9050919050565b7f436173696e6f20646f6573206e6f74206861766520656e6f7567682066756e6460008201527f7300000000000000000000000000000000000000000000000000000000000000602082015250565b6000612c8e60218361244b565b9150612c9982612c32565b604082019050919050565b60006020820190508181036000830152612cbd81612c81565b9050919050565b7f4e6f7420656e6f756768206d6f6e657920696e2077616c6c657420746f20706c60008201527f6163652062657400000000000000000000000000000000000000000000000000602082015250565b6000612d2060278361244b565b9150612d2b82612cc4565b604082019050919050565b60006020820190508181036000830152612d4f81612d13565b9050919050565b7f4e65656420746f206d616b6520612076616c6964206265740000000000000000600082015250565b6000612d8c60188361244b565b9150612d9782612d56565b602082019050919050565b60006020820190508181036000830152612dbb81612d7f565b9050919050565b7f5573657220686173206e6f74206265656e20726567697374657265642077697460008201527f682074686520636173696e6f0000000000000000000000000000000000000000602082015250565b6000612e1e602c8361244b565b9150612e2982612dc2565b604082019050919050565b60006020820190508181036000830152612e4d81612e11565b9050919050565b6000819050919050565b612e6781612e54565b82525050565b600067ffffffffffffffff82169050919050565b612e8a81612e6d565b82525050565b600061ffff82169050919050565b612ea781612e90565b82525050565b600063ffffffff82169050919050565b612ec681612ead565b82525050565b600060a082019050612ee16000830188612e5e565b612eee6020830187612e81565b612efb6040830186612e9e565b612f086060830185612ebd565b612f156080830184612ebd565b9695505050505050565b600081519050612f2e81611e91565b92915050565b600060208284031215612f4a57612f49611e7d565b5b6000612f5884828501612f1f565b91505092915050565b600081519050919050565b6000819050602082019050919050565b6000602082019050919050565b6000612f9482612f61565b612f9e81856129ef565b9350612fa983612f6c565b8060005b83811015612fda578151612fc18882612a24565b9750612fcc83612f7c565b925050600181019050612fad565b5085935050505092915050565b6000608082019050612ffc6000830187612240565b818103602083015261300e8186612f89565b905061301d6040830185612240565b61302a606083018461224f565b95945050505050565b7f5265717565737420776173206e6f7420666f756e640000000000000000000000600082015250565b600061306960158361244b565b915061307482613033565b602082019050919050565b600060208201905081810360008301526130988161305c565b9050919050565b60006040820190506130b46000830185612240565b6130c16020830184612240565b9392505050565b7f4e487b7100000000000000000000000000000000000000000000000000000000600052601260045260246000fd5b600061310282611e87565b915061310d83611e87565b92508261311d5761311c6130c8565b5b828206905092915050565b600061313382611e87565b915061313e83611e87565b9250817fffffffffffffffffffffffffffffffffffffffffffffffffffffffffffffffff048311821515161561317757613176612571565b5b828202905092915050565b600061318d82611e87565b915061319883611e87565b9250826131a8576131a76130c8565b5b828204905092915050565b7f546865207573657220646964206e6f742077696e20616e79206d6f6e65790000600082015250565b60006131e9601e8361244b565b91506131f4826131b3565b602082019050919050565b60006020820190508181036000830152613218816131dc565b9050919050565b7f436173696e6f20646f6573206e6f74206861766520656e6f7567682066756e6460008201527f7320746f2072657761726420757365722061667465722073756363657373667560208201527f6c20626574000000000000000000000000000000000000000000000000000000604082015250565b60006132a160458361244b565b91506132ac8261321f565b606082019050919050565b600060208201905081810360008301526132d081613294565b9050919050565b7f436173696e6f206661696c656420746f2073656e642045746865720000000000600082015250565b600061330d601b8361244b565b9150613318826132d7565b602082019050919050565b6000602082019050818103600083015261333c81613300565b9050919050565b600061334e82611e87565b915061335983611e87565b92508282101561336c5761336b612571565b5b828203905092915050565b600061338282611e87565b915061338d83611e87565b9250827fffffffffffffffffffffffffffffffffffffffffffffffffffffffffffffffff038211156133c2576133c1612571565b5b82820190509291505056fea264697066735822122002f11ad52e0c366705a2b01ce5c3d55bddf8bb43c92aa4dd7e60aba92727ca2564736f6c634300080b0033",
  "immutableReferences": {
    "1263": [
      {
        "length": 32,
        "start": 1307
      },
      {
        "length": 32,
        "start": 1391
      }
    ]
  },
  "source": "// SPDX-License-Identifier: UNLICENSED\npragma solidity ^0.8.11;\n\nimport './SafeMath.sol';\nimport \"../node_modules/@chainlink/contracts/src/v0.8/interfaces/VRFCoordinatorV2Interface.sol\";\nimport \"../node_modules/@chainlink/contracts/src/v0.8/VRFConsumerBaseV2.sol\";\n\ncontract RouletteSubscription is VRFConsumerBaseV2{\n    \n    address public casinoAddress; //only this address can acept and end games\n    \n    /// @dev Min value user needs to deposit for creating game session.\n    uint128 public minStake;\n\n    /// @dev Max value user can deposit for creating game session.\n    uint128 public maxStake;\n\n    uint256 public gameId;\n\n    address payable[] public approvedAddresses;\n\n    uint64 subscriptionId = 1215;\n    address constant linkAddress = 0x779877A7B0D9E8603169DdbD7836e478b4624789; //address of the link token\n    bytes32 constant keyHash = 0x474e34a077df58807dbe9c96d3c009b23b3c6d0cce433e59bbf5b34f823bc56c; //keyhash\n    VRFCoordinatorV2Interface COORDINATOR;\n\n    uint32 constant callbackGasLimit = 1 * 10 ** 6;// how much gas they are willing to spend for you (cus they call function in your smart contract to send you the result)\n    uint32 constant numWords =1; //number of random numbers generated\n    uint16 constant requestConfirmations = 3; //how many blocks need to be confirmed (So there can be no manipulations)\n\n    mapping (uint256 => Game) public Games;\n    mapping (uint256 => LinkRequest) public LinkRequests;\n\n    constructor () \n    VRFConsumerBaseV2(0x8103B0A8A00be2DDC778e6e7eaa21791Cd364625)\n    {\n        COORDINATOR = VRFCoordinatorV2Interface(0x8103B0A8A00be2DDC778e6e7eaa21791Cd364625);\n        casinoAddress = payable(msg.sender);\n        gameId = 0;\n\n        minStake = 1 * 10 ** 13; //0.00001 ETH (0.01862 USD as of 8 April)\n        maxStake = 1 * 10 ** 18; //equivalent to 1 eth (1,862 USD as of 8 April)\n    }\n\n    struct LinkRequest {\n        uint256 requestId;\n        bool exists;\n        bool requestFulfilled;\n        uint256 randomWord;\n    }\n    struct Game {\n        uint256 gameId;\n        uint256[] bet;\n        uint256 betAmount;\n        address payable user;\n        bool win;\n        uint256 winnings;\n        bool gameDone;\n        uint256 requestId;\n        uint256 gameResult;\n    }\n    //may wantr to use indexed for gameFinished\n    event betPlaced(uint256 gameId, uint256[] betPlaced, uint256 betValue, address payable user);\n    event RequestSent(uint256 requestId);\n    event RequestFulfilled(uint256 requestId, uint256 randomWords);\n    event gameFinished(uint256 id, uint256[] bet, uint256 betAmount, address payable user, bool win, uint256 winnings);\n    event Recieved(address depositor,uint256 amount);\n    event Withdrawn(address casino, uint256 amount);\n    event OwnershipTransferredSuccessfully(address indexed previousOwner, address indexed newOwner);\n    event RegisterUser(address user);\n\n    function placeBet(uint256[] memory _numbersSelected) public payable onlyValidUserStake(msg.value) onlyValidHouseFunds(msg.value) {\n        //should freeze any more functionality instantly actually (like dont let the user button spam)\n        require (msg.sender.balance > msg.value, \"Not enough money in wallet to place bet\");\n        require (_numbersSelected.length < 7 && _numbersSelected.length > 0 || _numbersSelected.length == 12 || _numbersSelected.length == 18, \"Need to make a valid bet\");\n        \n        bool verified = verifyUser(msg.sender);\n        require (verified == true, \"User has not been registered with the casino\");\n\n        uint256 requestId = COORDINATOR.requestRandomWords(keyHash, subscriptionId, requestConfirmations, callbackGasLimit, numWords); //will revert if subscription is not set and funded\n        LinkRequests[requestId] = LinkRequest(requestId, true, false, 0);\n        emit RequestSent(requestId);\n        \n        gameId = SafeMath.add(gameId, 1);\n        Games[gameId] = Game(gameId, _numbersSelected, msg.value, payable(msg.sender), false, 0, false, requestId, 0);\n        emit betPlaced(gameId, _numbersSelected, msg.value, payable (msg.sender));\n    }\n\n    function fulfillRandomWords(uint256 _requestId, uint256[] memory _randomWords) internal override {\n        require (LinkRequests[_requestId].exists, \"Request was not found\"); //checks whether a request has actually been made\n        LinkRequests[_requestId].randomWord = _randomWords[0];\n        LinkRequests[_requestId].requestFulfilled = true;\n        emit RequestFulfilled(_requestId, LinkRequests[_requestId].randomWord);\n    }\n\n    function endGame(uint256 _gameId) public {\n        require (Games[_gameId].gameDone == false, \"Game has already been finished.\");\n        require (Games[_gameId].gameId != 0, \"Game does not exist.\");\n        require (LinkRequests[Games[_gameId].requestId].requestFulfilled == true, \"Random number has not yet been generated, try again after a short wait.\");\n        uint256 result = SafeMath.mod(LinkRequests[Games[_gameId].requestId].randomWord, 38); //This line extracts the randomly generated number that has been stored by the request struct\n\n        bool won = checkResult(result, Games[_gameId].bet);\n        if (won == true) {//Means that the user placed their bet successfully\n            uint256 payout = calculatePayout(Games[_gameId].bet.length);\n            payout = SafeMath.div(SafeMath.mul(payout, Games[_gameId].betAmount), 10);\n\n            safeTransferWinnings(payable (Games[_gameId].user), payout);\n\n            Games[_gameId].win = true;\n            Games[_gameId].winnings = SafeMath.sub(payout, Games[_gameId].betAmount);\n        } else {\n        }\n        Games[_gameId].gameDone = true;\n        Games[_gameId].gameResult = result;\n        emit gameFinished(_gameId, Games[_gameId].bet, Games[_gameId].betAmount, Games[_gameId].user, Games[_gameId].win, Games[_gameId].winnings);\n    }\n\n    function checkResult (uint256 _result, uint256[] memory _numbersSelected) private pure returns (bool) {\n        for (uint256 i = 0; i< 38 && i < _numbersSelected.length ; i++) {\n            if (_numbersSelected[i] == _result) {\n                return true;\n            }\n        }\n        return false; \n    }\n\n    function calculatePayout(uint256 _amountOfNumbersSelected) private pure returns (uint256) {\n        //All the payouts are multiplied by ten so that the odds 1.5 can be returned (solidity cannot handle floating point numbers)\n        //The payout is later divided by ten after being multiplide with the user's bet\n        //Odds are dependent on the amount of numbers selected not which ones. \n        if (_amountOfNumbersSelected == 18) {\n            //If red/black/odd/even numbers are bet on (payout is 1:1)\n            return 20;\n        } else if (_amountOfNumbersSelected == 12) {\n            //If the 1st/2nd/3rd dozen or the 1st/2nd/3rd column is bet on (payuout is 2:1)\n            return 15;\n        } else if (_amountOfNumbersSelected < 7 && _amountOfNumbersSelected > 0) {\n            // When selecting individual numbers up to 6 can be selected with the odds being (36/# numbers selected) - 1    \n            uint256 payout = SafeMath.div(36, _amountOfNumbersSelected);\n            payout = SafeMath.sub(payout, 1);\n            return SafeMath.mul(payout, 10);\n        }\n        return 0;\n    }\n\n    //Sends money from the casino to the user\n    function safeTransferWinnings(address payable _userAddress, uint256 _userPayout) private {\n        require (_userPayout > 0, \"The user did not win any money\");\n        require (casinoAddress.balance > _userPayout, \"Casino does not have enough funds to reward user after successful bet\");\n        (bool sent,) = _userAddress.call{value: _userPayout}(\"\");\n        require(sent, \"Casino failed to send Ether\");\n        }\n\n    function AddFunds() public payable {\n        emit Recieved(msg.sender, msg.value);\n        //If users pay to the wrong function, consider it a donation.\n    }\n\n    function withdrawFundsWei(uint256 _withdrawAmount) public onlyCasino {\n        require (_withdrawAmount <= address(this).balance, \"Attempting to withdraw more funds than casino has available\");\n        (bool sent,) = casinoAddress.call{value: _withdrawAmount}(\"\");\n        require(sent, \"Failed to withdraw ether\");\n\n        emit Withdrawn(msg.sender, _withdrawAmount);\n    }\n    \n    function withdrawAllFunds() public onlyCasino {\n        require (0 < address(this).balance, \"Casino has no funds to withdraw\");\n        (bool sent,) = casinoAddress.call{value: address(this).balance}(\"\");\n        require(sent, \"Failed to withdraw ether\");\n        emit Withdrawn(msg.sender, address(this).balance);\n    }\n\n    function registerUser(address payable _address) public onlyCasino {\n        //maybe add a check to make sure they're not already registered\n        approvedAddresses.push(_address);\n        emit RegisterUser(_address);\n    }\n\n    function unregisterUser(address payable _address) public onlyCasino {\n        for (uint i; i < approvedAddresses.length; i++) {\n            if (_address == approvedAddresses[i]) {\n                delete approvedAddresses[i];\n                //no break in case there are multiple instances of a single address\n            }\n        }\n    }\n\n    function verifyUser(address _address) private view returns (bool) {\n        for (uint i; i < approvedAddresses.length; i++) {\n            if (_address == approvedAddresses[i]) {\n                return true;\n            }\n        }\n        return false;\n    }\n\n    function getApprovedUsers() public view returns( address payable[] memory) {\n        return approvedAddresses;\n    }\n\n    function changeOwner(address payable _newOwner) public onlyCasino {\n        require(_newOwner != address(0), \"Need to transfer ownership to a valid address\");\n        emit OwnershipTransferredSuccessfully(casinoAddress, _newOwner);\n        casinoAddress = _newOwner;\n    }\n\n    function getChainLinkStatus(uint256 _requestId) external view returns (bool) {\n        return LinkRequests[_requestId].requestFulfilled;\n    }\n    function getGameStatus(uint256 _gameId) external view returns (bool) {\n        return Games[_gameId].gameDone;\n    }\n\n    // ensures that at a maximum only 10% can be bet at a time\n    modifier onlyValidHouseFunds (uint256 _userBet) {\n        require (SafeMath.mul(_userBet, 1) <= address(this).balance, \"Casino does not have enough funds\");\n        _;\n        //NEED TO CHANGE THE 1 TO 100 WAS SIMPLY MADE TO 1 FOR TESTING PURPOSES\n    }\n\n    modifier onlyValidUserStake (uint256 _userBet) {\n        require (_userBet >= minStake, \"Stake is below the minimum stake\");\n        require (_userBet <= maxStake, \"Stake is above the maximum stake\");\n        _;\n    }\n\n    modifier onlyCasino() {\n        require(msg.sender == casinoAddress, \"tried to send but not the casino\");\n        _;\n    }\n    \n}",
  "sourcePath": "/Users/jeroenmijer/Uni y3/roulette-dapp/blockchain-truffle/contracts/Roulette.sol",
  "compiler": {
    "name": "solc",
    "version": "0.8.11+commit.d7f03943.Emscripten.clang"
  },
  "schemaVersion": "3.4.13",
  "updatedAt": "2023-04-21T11:07:52.954Z",
  "devdoc": {
    "kind": "dev",
    "methods": {},
    "stateVariables": {
      "maxStake": {
        "details": "Max value user can deposit for creating game session."
      },
      "minStake": {
        "details": "Min value user needs to deposit for creating game session."
      }
    },
    "version": 1
  },
  "userdoc": {
    "kind": "user",
    "methods": {},
    "version": 1
  }
}