{
  "contractName": "RouletteMock",
  "abi": [
    {
      "inputs": [],
      "stateMutability": "nonpayable",
      "type": "constructor"
    },
    {
      "inputs": [
        {
          "internalType": "address",
          "name": "have",
          "type": "address"
        },
        {
          "internalType": "address",
          "name": "want",
          "type": "address"
        }
      ],
      "name": "OnlyCoordinatorCanFulfill",
      "type": "error"
    },
    {
      "anonymous": false,
      "inputs": [
        {
          "indexed": false,
          "internalType": "uint256",
          "name": "gameId",
          "type": "uint256"
        },
        {
          "indexed": false,
          "internalType": "uint256[]",
          "name": "betPlaced",
          "type": "uint256[]"
        },
        {
          "indexed": false,
          "internalType": "uint256",
          "name": "requestId",
          "type": "uint256"
        },
        {
          "indexed": false,
          "internalType": "uint256",
          "name": "betValue",
          "type": "uint256"
        },
        {
          "indexed": false,
          "internalType": "address payable",
          "name": "user",
          "type": "address"
        }
      ],
      "name": "BetPlaced",
      "type": "event"
    },
    {
      "anonymous": false,
      "inputs": [
        {
          "indexed": true,
          "internalType": "uint256",
          "name": "id",
          "type": "uint256"
        },
        {
          "indexed": false,
          "internalType": "uint256[]",
          "name": "bet",
          "type": "uint256[]"
        },
        {
          "indexed": false,
          "internalType": "uint256",
          "name": "betAmount",
          "type": "uint256"
        },
        {
          "indexed": true,
          "internalType": "address payable",
          "name": "user",
          "type": "address"
        },
        {
          "indexed": true,
          "internalType": "bool",
          "name": "win",
          "type": "bool"
        },
        {
          "indexed": false,
          "internalType": "uint256",
          "name": "winnings",
          "type": "uint256"
        }
      ],
      "name": "GameFinished",
      "type": "event"
    },
    {
      "anonymous": false,
      "inputs": [
        {
          "indexed": true,
          "internalType": "address",
          "name": "previousOwner",
          "type": "address"
        },
        {
          "indexed": true,
          "internalType": "address",
          "name": "newOwner",
          "type": "address"
        }
      ],
      "name": "OwnershipTransferredSuccessfully",
      "type": "event"
    },
    {
      "anonymous": false,
      "inputs": [
        {
          "indexed": true,
          "internalType": "address",
          "name": "depositor",
          "type": "address"
        },
        {
          "indexed": true,
          "internalType": "uint256",
          "name": "amount",
          "type": "uint256"
        }
      ],
      "name": "Recieved",
      "type": "event"
    },
    {
      "anonymous": false,
      "inputs": [
        {
          "indexed": true,
          "internalType": "address",
          "name": "user",
          "type": "address"
        }
      ],
      "name": "RegisterUser",
      "type": "event"
    },
    {
      "anonymous": false,
      "inputs": [
        {
          "indexed": true,
          "internalType": "uint256",
          "name": "requestId",
          "type": "uint256"
        }
      ],
      "name": "RequestSent",
      "type": "event"
    },
    {
      "anonymous": false,
      "inputs": [
        {
          "indexed": true,
          "internalType": "uint256",
          "name": "requestId",
          "type": "uint256"
        },
        {
          "indexed": true,
          "internalType": "uint256",
          "name": "randomWords",
          "type": "uint256"
        }
      ],
      "name": "RequestStored",
      "type": "event"
    },
    {
      "anonymous": false,
      "inputs": [
        {
          "indexed": true,
          "internalType": "address",
          "name": "casino",
          "type": "address"
        },
        {
          "indexed": true,
          "internalType": "uint256",
          "name": "amount",
          "type": "uint256"
        }
      ],
      "name": "Withdrawn",
      "type": "event"
    },
    {
      "inputs": [
        {
          "internalType": "uint256",
          "name": "",
          "type": "uint256"
        }
      ],
      "name": "Games",
      "outputs": [
        {
          "internalType": "uint256",
          "name": "gameId",
          "type": "uint256"
        },
        {
          "internalType": "uint256",
          "name": "betAmount",
          "type": "uint256"
        },
        {
          "internalType": "address payable",
          "name": "user",
          "type": "address"
        },
        {
          "internalType": "bool",
          "name": "win",
          "type": "bool"
        },
        {
          "internalType": "uint256",
          "name": "winnings",
          "type": "uint256"
        },
        {
          "internalType": "bool",
          "name": "gameDone",
          "type": "bool"
        },
        {
          "internalType": "uint256",
          "name": "requestId",
          "type": "uint256"
        },
        {
          "internalType": "uint256",
          "name": "gameResult",
          "type": "uint256"
        }
      ],
      "stateMutability": "view",
      "type": "function",
      "constant": true
    },
    {
      "inputs": [
        {
          "internalType": "uint256",
          "name": "",
          "type": "uint256"
        }
      ],
      "name": "LinkRequests",
      "outputs": [
        {
          "internalType": "uint256",
          "name": "requestId",
          "type": "uint256"
        },
        {
          "internalType": "bool",
          "name": "exists",
          "type": "bool"
        },
        {
          "internalType": "bool",
          "name": "requestFulfilled",
          "type": "bool"
        },
        {
          "internalType": "uint256",
          "name": "randomWord",
          "type": "uint256"
        }
      ],
      "stateMutability": "view",
      "type": "function",
      "constant": true
    },
    {
      "inputs": [
        {
          "internalType": "uint256",
          "name": "",
          "type": "uint256"
        }
      ],
      "name": "approvedAddresses",
      "outputs": [
        {
          "internalType": "address payable",
          "name": "",
          "type": "address"
        }
      ],
      "stateMutability": "view",
      "type": "function",
      "constant": true
    },
    {
      "inputs": [],
      "name": "casinoAddress",
      "outputs": [
        {
          "internalType": "address",
          "name": "",
          "type": "address"
        }
      ],
      "stateMutability": "view",
      "type": "function",
      "constant": true
    },
    {
      "inputs": [],
      "name": "gameId",
      "outputs": [
        {
          "internalType": "uint256",
          "name": "",
          "type": "uint256"
        }
      ],
      "stateMutability": "view",
      "type": "function",
      "constant": true
    },
    {
      "inputs": [],
      "name": "maxStake",
      "outputs": [
        {
          "internalType": "uint128",
          "name": "",
          "type": "uint128"
        }
      ],
      "stateMutability": "view",
      "type": "function",
      "constant": true
    },
    {
      "inputs": [],
      "name": "minStake",
      "outputs": [
        {
          "internalType": "uint128",
          "name": "",
          "type": "uint128"
        }
      ],
      "stateMutability": "view",
      "type": "function",
      "constant": true
    },
    {
      "inputs": [
        {
          "internalType": "uint256",
          "name": "requestId",
          "type": "uint256"
        },
        {
          "internalType": "uint256[]",
          "name": "randomWords",
          "type": "uint256[]"
        }
      ],
      "name": "rawFulfillRandomWords",
      "outputs": [],
      "stateMutability": "nonpayable",
      "type": "function"
    },
    {
      "inputs": [
        {
          "internalType": "uint256[]",
          "name": "_numbersSelected",
          "type": "uint256[]"
        }
      ],
      "name": "placeBet",
      "outputs": [],
      "stateMutability": "payable",
      "type": "function",
      "payable": true
    },
    {
      "inputs": [
        {
          "internalType": "uint256",
          "name": "_gameId",
          "type": "uint256"
        }
      ],
      "name": "endGame",
      "outputs": [],
      "stateMutability": "nonpayable",
      "type": "function"
    },
    {
      "inputs": [],
      "name": "addFunds",
      "outputs": [],
      "stateMutability": "payable",
      "type": "function",
      "payable": true
    },
    {
      "inputs": [
        {
          "internalType": "uint256",
          "name": "_withdrawAmount",
          "type": "uint256"
        }
      ],
      "name": "withdrawFundsWei",
      "outputs": [],
      "stateMutability": "nonpayable",
      "type": "function"
    },
    {
      "inputs": [],
      "name": "withdrawAllFunds",
      "outputs": [],
      "stateMutability": "nonpayable",
      "type": "function"
    },
    {
      "inputs": [
        {
          "internalType": "address payable",
          "name": "_address",
          "type": "address"
        },
        {
          "internalType": "bytes32",
          "name": "_messageHash",
          "type": "bytes32"
        },
        {
          "internalType": "uint8",
          "name": "_v",
          "type": "uint8"
        },
        {
          "internalType": "bytes32",
          "name": "_r",
          "type": "bytes32"
        },
        {
          "internalType": "bytes32",
          "name": "_s",
          "type": "bytes32"
        }
      ],
      "name": "registerUser",
      "outputs": [],
      "stateMutability": "nonpayable",
      "type": "function"
    },
    {
      "inputs": [
        {
          "internalType": "address payable",
          "name": "_address",
          "type": "address"
        }
      ],
      "name": "unregisterUser",
      "outputs": [],
      "stateMutability": "nonpayable",
      "type": "function"
    },
    {
      "inputs": [],
      "name": "getApprovedUsers",
      "outputs": [
        {
          "internalType": "address payable[]",
          "name": "",
          "type": "address[]"
        }
      ],
      "stateMutability": "view",
      "type": "function",
      "constant": true
    },
    {
      "inputs": [
        {
          "internalType": "address payable",
          "name": "_newOwner",
          "type": "address"
        }
      ],
      "name": "changeOwner",
      "outputs": [],
      "stateMutability": "nonpayable",
      "type": "function"
    }
  ],
  "bytecode": "0x60a06040526104bf600460006101000a81548167ffffffffffffffff021916908367ffffffffffffffff16021790555034801561003b57600080fd5b50738103b0a8a00be2ddc778e6e7eaa21791cd3646258073ffffffffffffffffffffffffffffffffffffffff1660808173ffffffffffffffffffffffffffffffffffffffff168152505050738103b0a8a00be2ddc778e6e7eaa21791cd364625600460086101000a81548173ffffffffffffffffffffffffffffffffffffffff021916908373ffffffffffffffffffffffffffffffffffffffff160217905550336000806101000a81548173ffffffffffffffffffffffffffffffffffffffff021916908373ffffffffffffffffffffffffffffffffffffffff16021790555060006002819055506509184e72a000600160006101000a8154816fffffffffffffffffffffffffffffffff02191690836fffffffffffffffffffffffffffffffff160217905550670de0b6b3a7640000600160106101000a8154816fffffffffffffffffffffffffffffffff02191690836fffffffffffffffffffffffffffffffff1602179055506080516134b46101c56000396000818161045e01526104b201526134b46000f3fe6080604052600436106100fe5760003560e01c806395bf190e11610095578063d0399bb811610064578063d0399bb81461030a578063d7c81b5514610333578063ea1b28e01461035e578063f72ea9dc14610389578063f7eafbed146103a5576100fe565b806395bf190e14610271578063a26759cb146102ae578063a6551784146102b8578063a6f9dae1146102e1576100fe565b8063375b3c0a116100d1578063375b3c0a146101c457806349649fbf146101ef5780636ade21e4146102065780638421ea1514610231576100fe565b806316d119fa146101035780631fe543e31461012e57806321f2ca3b1461015757806329d4f4c314610180575b600080fd5b34801561010f57600080fd5b506101186103ce565b6040516101259190611faa565b60405180910390f35b34801561013a57600080fd5b506101556004803603810190610150919061216f565b61045c565b005b34801561016357600080fd5b5061017e600480360381019061017991906121f7565b61051c565b005b34801561018c57600080fd5b506101a760048036038101906101a29190612224565b610737565b6040516101bb98979695949392919061228a565b60405180910390f35b3480156101d057600080fd5b506101d96107b9565b6040516101e69190612333565b60405180910390f35b3480156101fb57600080fd5b506102046107db565b005b34801561021257600080fd5b5061021b6109c6565b604051610228919061236f565b60405180910390f35b34801561023d57600080fd5b5061025860048036038101906102539190612224565b6109ea565b604051610268949392919061238a565b60405180910390f35b34801561027d57600080fd5b5061029860048036038101906102939190612224565b610a34565b6040516102a591906123cf565b60405180910390f35b6102b6610a73565b005b3480156102c457600080fd5b506102df60048036038101906102da9190612224565b610ab9565b005b3480156102ed57600080fd5b50610308600480360381019061030391906121f7565b610c9f565b005b34801561031657600080fd5b50610331600480360381019061032c9190612224565b610e5a565b005b34801561033f57600080fd5b50610348611299565b60405161035591906123ea565b60405180910390f35b34801561036a57600080fd5b5061037361129f565b6040516103809190612333565b60405180910390f35b6103a3600480360381019061039e9190612405565b6112c1565b005b3480156103b157600080fd5b506103cc60048036038101906103c791906124bd565b611847565b005b6060600380548060200260200160405190810160405280929190818152602001828054801561045257602002820191906000526020600020905b8160009054906101000a900473ffffffffffffffffffffffffffffffffffffffff1673ffffffffffffffffffffffffffffffffffffffff1681526020019060010190808311610408575b5050505050905090565b7f000000000000000000000000000000000000000000000000000000000000000073ffffffffffffffffffffffffffffffffffffffff163373ffffffffffffffffffffffffffffffffffffffff161461050e57337f00000000000000000000000000000000000000000000000000000000000000006040517f1cf993f4000000000000000000000000000000000000000000000000000000008152600401610505929190612538565b60405180910390fd5b61051882826119de565b5050565b60008054906101000a900473ffffffffffffffffffffffffffffffffffffffff1673ffffffffffffffffffffffffffffffffffffffff163373ffffffffffffffffffffffffffffffffffffffff16146105aa576040517f08c379a00000000000000000000000000000000000000000000000000000000081526004016105a1906125be565b60405180910390fd5b60005b60038054905081101561073357600381815481106105ce576105cd6125de565b5b9060005260206000200160009054906101000a900473ffffffffffffffffffffffffffffffffffffffff1673ffffffffffffffffffffffffffffffffffffffff168273ffffffffffffffffffffffffffffffffffffffff1614156107205760036001600380549050610640919061263c565b81548110610651576106506125de565b5b9060005260206000200160009054906101000a900473ffffffffffffffffffffffffffffffffffffffff16600382815481106106905761068f6125de565b5b9060005260206000200160006101000a81548173ffffffffffffffffffffffffffffffffffffffff021916908373ffffffffffffffffffffffffffffffffffffffff16021790555060038054806106ea576106e9612670565b5b6001900381819060005260206000200160006101000a81549073ffffffffffffffffffffffffffffffffffffffff021916905590555b808061072b9061269f565b9150506105ad565b5050565b60056020528060005260406000206000915090508060000154908060020154908060030160009054906101000a900473ffffffffffffffffffffffffffffffffffffffff16908060030160149054906101000a900460ff16908060040154908060050160009054906101000a900460ff16908060060154908060070154905088565b600160009054906101000a90046fffffffffffffffffffffffffffffffff1681565b60008054906101000a900473ffffffffffffffffffffffffffffffffffffffff1673ffffffffffffffffffffffffffffffffffffffff163373ffffffffffffffffffffffffffffffffffffffff1614610869576040517f08c379a0000000000000000000000000000000000000000000000000000000008152600401610860906125be565b60405180910390fd5b476000106108ac576040517f08c379a00000000000000000000000000000000000000000000000000000000081526004016108a390612734565b60405180910390fd5b600047905060008060009054906101000a900473ffffffffffffffffffffffffffffffffffffffff1673ffffffffffffffffffffffffffffffffffffffff16476040516108f890612785565b60006040518083038185875af1925050503d8060008114610935576040519150601f19603f3d011682016040523d82523d6000602084013e61093a565b606091505b505090508061097e576040517f08c379a0000000000000000000000000000000000000000000000000000000008152600401610975906127e6565b60405180910390fd5b813373ffffffffffffffffffffffffffffffffffffffff167f7084f5476618d8e60b11ef0d7d3f06914655adb8793e28ff7f018d4c76d505d560405160405180910390a35050565b60008054906101000a900473ffffffffffffffffffffffffffffffffffffffff1681565b60066020528060005260406000206000915090508060000154908060010160009054906101000a900460ff16908060010160019054906101000a900460ff16908060020154905084565b60038181548110610a4457600080fd5b906000526020600020016000915054906101000a900473ffffffffffffffffffffffffffffffffffffffff1681565b343373ffffffffffffffffffffffffffffffffffffffff167fe03f2fbffd55aceaa08b8e27b348ae6b7607e8a520dfe6a92b053c2ce0ac850a60405160405180910390a3565b60008054906101000a900473ffffffffffffffffffffffffffffffffffffffff1673ffffffffffffffffffffffffffffffffffffffff163373ffffffffffffffffffffffffffffffffffffffff1614610b47576040517f08c379a0000000000000000000000000000000000000000000000000000000008152600401610b3e906125be565b60405180910390fd5b47811115610b8a576040517f08c379a0000000000000000000000000000000000000000000000000000000008152600401610b8190612878565b60405180910390fd5b60008060009054906101000a900473ffffffffffffffffffffffffffffffffffffffff1673ffffffffffffffffffffffffffffffffffffffff1682604051610bd190612785565b60006040518083038185875af1925050503d8060008114610c0e576040519150601f19603f3d011682016040523d82523d6000602084013e610c13565b606091505b5050905080610c57576040517f08c379a0000000000000000000000000000000000000000000000000000000008152600401610c4e906127e6565b60405180910390fd5b813373ffffffffffffffffffffffffffffffffffffffff167f7084f5476618d8e60b11ef0d7d3f06914655adb8793e28ff7f018d4c76d505d560405160405180910390a35050565b60008054906101000a900473ffffffffffffffffffffffffffffffffffffffff1673ffffffffffffffffffffffffffffffffffffffff163373ffffffffffffffffffffffffffffffffffffffff1614610d2d576040517f08c379a0000000000000000000000000000000000000000000000000000000008152600401610d24906125be565b60405180910390fd5b600073ffffffffffffffffffffffffffffffffffffffff168173ffffffffffffffffffffffffffffffffffffffff161415610d9d576040517f08c379a0000000000000000000000000000000000000000000000000000000008152600401610d949061290a565b60405180910390fd5b8073ffffffffffffffffffffffffffffffffffffffff1660008054906101000a900473ffffffffffffffffffffffffffffffffffffffff1673ffffffffffffffffffffffffffffffffffffffff167f1713136758fb583fcecf2c9a737cbb86b4d4ac5b3296135287532cf17591dbfb60405160405180910390a3806000806101000a81548173ffffffffffffffffffffffffffffffffffffffff021916908373ffffffffffffffffffffffffffffffffffffffff16021790555050565b600015156005600083815260200190815260200160002060050160009054906101000a900460ff16151514610ec4576040517f08c379a0000000000000000000000000000000000000000000000000000000008152600401610ebb90612976565b60405180910390fd5b600060056000838152602001908152602001600020600001541415610f1e576040517f08c379a0000000000000000000000000000000000000000000000000000000008152600401610f15906129e2565b60405180910390fd5b60011515600660006005600085815260200190815260200160002060060154815260200190815260200160002060010160019054906101000a900460ff16151514610f9e576040517f08c379a0000000000000000000000000000000000000000000000000000000008152600401610f9590612a9a565b60405180910390fd5b6000610fd76006600060056000868152602001908152602001600020600601548152602001908152602001600020600201546026611aee565b90506000611049826005600086815260200190815260200160002060010180548060200260200160405190810160405280929190818152602001828054801561103f57602002820191906000526020600020905b81548152602001906001019080831161102b575b5050505050611b04565b905060011515811515141561115957600061107c6005600086815260200190815260200160002060010180549050611b6c565b90506110a86110a1826005600088815260200190815260200160002060020154611be0565b600a611bf6565b90506110ea6005600086815260200190815260200160002060030160009054906101000a900473ffffffffffffffffffffffffffffffffffffffff1682611c0c565b60016005600086815260200190815260200160002060030160146101000a81548160ff021916908315150217905550611139816005600087815260200190815260200160002060020154611d79565b60056000868152602001908152602001600020600401819055505061115a565b5b60016005600085815260200190815260200160002060050160006101000a81548160ff0219169083151502179055508160056000858152602001908152602001600020600701819055506005600084815260200190815260200160002060030160149054906101000a900460ff1615156005600085815260200190815260200160002060030160009054906101000a900473ffffffffffffffffffffffffffffffffffffffff1673ffffffffffffffffffffffffffffffffffffffff16847fe4a9a27375958bdad88a8ac5d5c369f92a60d811a02f5162c9a0f8772748c207600560008881526020019081526020016000206001016005600089815260200190815260200160002060020154600560008a81526020019081526020016000206004015460405161128c93929190612bc8565b60405180910390a4505050565b60025481565b600160109054906101000a90046fffffffffffffffffffffffffffffffff1681565b34600160009054906101000a90046fffffffffffffffffffffffffffffffff166fffffffffffffffffffffffffffffffff16811015611335576040517f08c379a000000000000000000000000000000000000000000000000000000000815260040161132c90612c52565b60405180910390fd5b600160109054906101000a90046fffffffffffffffffffffffffffffffff166fffffffffffffffffffffffffffffffff168111156113a8576040517f08c379a000000000000000000000000000000000000000000000000000000000815260040161139f90612cbe565b60405180910390fd5b33600115156113b682611d8f565b1515146113f8576040517f08c379a00000000000000000000000000000000000000000000000000000000081526004016113ef90612d2a565b60405180910390fd5b3447611405826064611be0565b1115611446576040517f08c379a000000000000000000000000000000000000000000000000000000000815260040161143d90612dbc565b60405180910390fd5b343373ffffffffffffffffffffffffffffffffffffffff16311161149f576040517f08c379a000000000000000000000000000000000000000000000000000000000815260040161149690612e4e565b60405180910390fd5b600784511080156114b1575060008451115b806114bd5750600c8451145b806114c9575060128451145b611508576040517f08c379a00000000000000000000000000000000000000000000000000000000081526004016114ff90612eba565b60405180910390fd5b61151133611d8f565b611550576040517f08c379a000000000000000000000000000000000000000000000000000000000815260040161154790612f4c565b60405180910390fd5b600061155f6002546001611e3a565b905060405180608001604052808281526020016001151581526020016000151581526020016000815250600660008381526020019081526020016000206000820151816000015560208201518160010160006101000a81548160ff02191690831515021790555060408201518160010160016101000a81548160ff02191690831515021790555060608201518160020155905050807f0cd21a41891ff04ecd9a8754bec97e2fb85d2a4e7694329d4dc364c796f23d0660405160405180910390a261162d6002546001611e3a565b60028190555060405180610120016040528060025481526020018681526020013481526020013373ffffffffffffffffffffffffffffffffffffffff1681526020016000151581526020016000815260200160001515815260200182815260200160008152506005600060025481526020019081526020016000206000820151816000015560208201518160010190805190602001906116ce929190611e50565b506040820151816002015560608201518160030160006101000a81548173ffffffffffffffffffffffffffffffffffffffff021916908373ffffffffffffffffffffffffffffffffffffffff16021790555060808201518160030160146101000a81548160ff02191690831515021790555060a0820151816004015560c08201518160050160006101000a81548160ff02191690831515021790555060e0820151816006015561010082015181600701559050507fea90bc2f35b02979983ff0519de27d7fa39744d84249e47e97fae7da9fc12815600254868334336040516117bb959493929190612ff2565b60405180910390a16000600167ffffffffffffffff8111156117e0576117df61202c565b5b60405190808252806020026020018201604052801561180e5781602001602082028036833780820191505090505b509050602781600081518110611827576118266125de565b5b60200260200101818152505061183f600254826119de565b505050505050565b83838383600060018585858560405160008152602001604052604051611870949392919061306a565b6020604051602081039080840390855afa158015611892573d6000803e3d6000fd5b50505060206040510351905060008054906101000a900473ffffffffffffffffffffffffffffffffffffffff1673ffffffffffffffffffffffffffffffffffffffff168173ffffffffffffffffffffffffffffffffffffffff161461192c576040517f08c379a000000000000000000000000000000000000000000000000000000000815260040161192390613121565b60405180910390fd5b60038a9080600181540180825580915050600190039060005260206000200160009091909190916101000a81548173ffffffffffffffffffffffffffffffffffffffff021916908373ffffffffffffffffffffffffffffffffffffffff1602179055508973ffffffffffffffffffffffffffffffffffffffff167f39e88f253dc4ea790c2b355aec8c5ac86335a9925c3815b62b74bcdfaffe68ec60405160405180910390a250505050505050505050565b6006600083815260200190815260200160002060010160009054906101000a900460ff16611a41576040517f08c379a0000000000000000000000000000000000000000000000000000000008152600401611a389061318d565b60405180910390fd5b80600081518110611a5557611a546125de565b5b6020026020010151600660008481526020019081526020016000206002018190555060016006600084815260200190815260200160002060010160016101000a81548160ff0219169083151502179055506006600083815260200190815260200160002060020154827f65e2e596ec46f1791450bbb1a80e4898966a841e4c728f99d19777568bf13db560405160405180910390a35050565b60008183611afc91906131dc565b905092915050565b600080600090505b602681108015611b1c5750825181105b15611b605783838281518110611b3557611b346125de565b5b60200260200101511415611b4d576001915050611b66565b8080611b589061269f565b915050611b0c565b50600090505b92915050565b60006012821415611b805760149050611bdb565b600c821415611b9257600f9050611bdb565b600782108015611ba25750600082115b15611bd6576000611bb4602484611bf6565b9050611bc1816001611d79565b9050611bce81600a611be0565b915050611bdb565b600090505b919050565b60008183611bee919061320d565b905092915050565b60008183611c049190613267565b905092915050565b60008111611c4f576040517f08c379a0000000000000000000000000000000000000000000000000000000008152600401611c46906132e4565b60405180910390fd5b8060008054906101000a900473ffffffffffffffffffffffffffffffffffffffff1673ffffffffffffffffffffffffffffffffffffffff163111611cc8576040517f08c379a0000000000000000000000000000000000000000000000000000000008152600401611cbf9061339c565b60405180910390fd5b60008273ffffffffffffffffffffffffffffffffffffffff1682604051611cee90612785565b60006040518083038185875af1925050503d8060008114611d2b576040519150601f19603f3d011682016040523d82523d6000602084013e611d30565b606091505b5050905080611d74576040517f08c379a0000000000000000000000000000000000000000000000000000000008152600401611d6b90613408565b60405180910390fd5b505050565b60008183611d87919061263c565b905092915050565b6000805b600380549050811015611e2f5760038181548110611db457611db36125de565b5b9060005260206000200160009054906101000a900473ffffffffffffffffffffffffffffffffffffffff1673ffffffffffffffffffffffffffffffffffffffff168373ffffffffffffffffffffffffffffffffffffffff161415611e1c576001915050611e35565b8080611e279061269f565b915050611d93565b50600090505b919050565b60008183611e489190613428565b905092915050565b828054828255906000526020600020908101928215611e8c579160200282015b82811115611e8b578251825591602001919060010190611e70565b5b509050611e999190611e9d565b5090565b5b80821115611eb6576000816000905550600101611e9e565b5090565b600081519050919050565b600082825260208201905092915050565b6000819050602082019050919050565b600073ffffffffffffffffffffffffffffffffffffffff82169050919050565b6000611f1182611ee6565b9050919050565b611f2181611f06565b82525050565b6000611f338383611f18565b60208301905092915050565b6000602082019050919050565b6000611f5782611eba565b611f618185611ec5565b9350611f6c83611ed6565b8060005b83811015611f9d578151611f848882611f27565b9750611f8f83611f3f565b925050600181019050611f70565b5085935050505092915050565b60006020820190508181036000830152611fc48184611f4c565b905092915050565b6000604051905090565b600080fd5b600080fd5b6000819050919050565b611ff381611fe0565b8114611ffe57600080fd5b50565b60008135905061201081611fea565b92915050565b600080fd5b6000601f19601f8301169050919050565b7f4e487b7100000000000000000000000000000000000000000000000000000000600052604160045260246000fd5b6120648261201b565b810181811067ffffffffffffffff821117156120835761208261202c565b5b80604052505050565b6000612096611fcc565b90506120a2828261205b565b919050565b600067ffffffffffffffff8211156120c2576120c161202c565b5b602082029050602081019050919050565b600080fd5b60006120eb6120e6846120a7565b61208c565b9050808382526020820190506020840283018581111561210e5761210d6120d3565b5b835b8181101561213757806121238882612001565b845260208401935050602081019050612110565b5050509392505050565b600082601f83011261215657612155612016565b5b81356121668482602086016120d8565b91505092915050565b6000806040838503121561218657612185611fd6565b5b600061219485828601612001565b925050602083013567ffffffffffffffff8111156121b5576121b4611fdb565b5b6121c185828601612141565b9150509250929050565b6121d481611f06565b81146121df57600080fd5b50565b6000813590506121f1816121cb565b92915050565b60006020828403121561220d5761220c611fd6565b5b600061221b848285016121e2565b91505092915050565b60006020828403121561223a57612239611fd6565b5b600061224884828501612001565b91505092915050565b61225a81611fe0565b82525050565b61226981611f06565b82525050565b60008115159050919050565b6122848161226f565b82525050565b6000610100820190506122a0600083018b612251565b6122ad602083018a612251565b6122ba6040830189612260565b6122c7606083018861227b565b6122d46080830187612251565b6122e160a083018661227b565b6122ee60c0830185612251565b6122fb60e0830184612251565b9998505050505050505050565b60006fffffffffffffffffffffffffffffffff82169050919050565b61232d81612308565b82525050565b60006020820190506123486000830184612324565b92915050565b600061235982611ee6565b9050919050565b6123698161234e565b82525050565b60006020820190506123846000830184612360565b92915050565b600060808201905061239f6000830187612251565b6123ac602083018661227b565b6123b9604083018561227b565b6123c66060830184612251565b95945050505050565b60006020820190506123e46000830184612260565b92915050565b60006020820190506123ff6000830184612251565b92915050565b60006020828403121561241b5761241a611fd6565b5b600082013567ffffffffffffffff81111561243957612438611fdb565b5b61244584828501612141565b91505092915050565b6000819050919050565b6124618161244e565b811461246c57600080fd5b50565b60008135905061247e81612458565b92915050565b600060ff82169050919050565b61249a81612484565b81146124a557600080fd5b50565b6000813590506124b781612491565b92915050565b600080600080600060a086880312156124d9576124d8611fd6565b5b60006124e7888289016121e2565b95505060206124f88882890161246f565b9450506040612509888289016124a8565b935050606061251a8882890161246f565b925050608061252b8882890161246f565b9150509295509295909350565b600060408201905061254d6000830185612360565b61255a6020830184612360565b9392505050565b600082825260208201905092915050565b7f41646472657373206973206e6f742074686520636173696e6f00000000000000600082015250565b60006125a8601983612561565b91506125b382612572565b602082019050919050565b600060208201905081810360008301526125d78161259b565b9050919050565b7f4e487b7100000000000000000000000000000000000000000000000000000000600052603260045260246000fd5b7f4e487b7100000000000000000000000000000000000000000000000000000000600052601160045260246000fd5b600061264782611fe0565b915061265283611fe0565b9250828210156126655761266461260d565b5b828203905092915050565b7f4e487b7100000000000000000000000000000000000000000000000000000000600052603160045260246000fd5b60006126aa82611fe0565b91507fffffffffffffffffffffffffffffffffffffffffffffffffffffffffffffffff8214156126dd576126dc61260d565b5b600182019050919050565b7f436173696e6f20686173206e6f2066756e647320746f20776974686472617700600082015250565b600061271e601f83612561565b9150612729826126e8565b602082019050919050565b6000602082019050818103600083015261274d81612711565b9050919050565b600081905092915050565b50565b600061276f600083612754565b915061277a8261275f565b600082019050919050565b600061279082612762565b9150819050919050565b7f4661696c656420746f2077697468647261772065746865720000000000000000600082015250565b60006127d0601883612561565b91506127db8261279a565b602082019050919050565b600060208201905081810360008301526127ff816127c3565b9050919050565b7f417474656d7074696e6720746f207769746864726177206d6f72652066756e6460008201527f73207468616e20636173696e6f2068617320617661696c61626c650000000000602082015250565b6000612862603b83612561565b915061286d82612806565b604082019050919050565b6000602082019050818103600083015261289181612855565b9050919050565b7f4e65656420746f207472616e73666572206f776e65727368697020746f20612060008201527f76616c6964206164647265737300000000000000000000000000000000000000602082015250565b60006128f4602d83612561565b91506128ff82612898565b604082019050919050565b60006020820190508181036000830152612923816128e7565b9050919050565b7f47616d652068617320616c7265616479206265656e2066696e69736865642e00600082015250565b6000612960601f83612561565b915061296b8261292a565b602082019050919050565b6000602082019050818103600083015261298f81612953565b9050919050565b7f47616d6520646f6573206e6f742065786973742e000000000000000000000000600082015250565b60006129cc601483612561565b91506129d782612996565b602082019050919050565b600060208201905081810360008301526129fb816129bf565b9050919050565b7f52616e646f6d206e756d62657220686173206e6f7420796574206265656e206760008201527f656e6572617465642c2074727920616761696e20616674657220612073686f7260208201527f7420776169742e00000000000000000000000000000000000000000000000000604082015250565b6000612a84604783612561565b9150612a8f82612a02565b606082019050919050565b60006020820190508181036000830152612ab381612a77565b9050919050565b600081549050919050565b600082825260208201905092915050565b60008190508160005260206000209050919050565b612af481611fe0565b82525050565b6000612b068383612aeb565b60208301905092915050565b60008160001c9050919050565b6000819050919050565b6000612b3c612b3783612b12565b612b1f565b9050919050565b6000612b4f8254612b29565b9050919050565b6000600182019050919050565b6000612b6e82612aba565b612b788185612ac5565b9350612b8383612ad6565b8060005b83811015612bbb57612b9882612b43565b612ba28882612afa565b9750612bad83612b56565b925050600181019050612b87565b5085935050505092915050565b60006060820190508181036000830152612be28186612b63565b9050612bf16020830185612251565b612bfe6040830184612251565b949350505050565b7f5374616b652069732062656c6f7720746865206d696e696d756d207374616b65600082015250565b6000612c3c602083612561565b9150612c4782612c06565b602082019050919050565b60006020820190508181036000830152612c6b81612c2f565b9050919050565b7f5374616b652069732061626f766520746865206d6178696d756d207374616b65600082015250565b6000612ca8602083612561565b9150612cb382612c72565b602082019050919050565b60006020820190508181036000830152612cd781612c9b565b9050919050565b7f55736572206973206e6f74207665726966696564000000000000000000000000600082015250565b6000612d14601483612561565b9150612d1f82612cde565b602082019050919050565b60006020820190508181036000830152612d4381612d07565b9050919050565b7f436173696e6f20646f6573206e6f74206861766520656e6f7567682066756e6460008201527f7300000000000000000000000000000000000000000000000000000000000000602082015250565b6000612da6602183612561565b9150612db182612d4a565b604082019050919050565b60006020820190508181036000830152612dd581612d99565b9050919050565b7f4e6f7420656e6f756768206d6f6e657920696e2077616c6c657420746f20706c60008201527f6163652062657400000000000000000000000000000000000000000000000000602082015250565b6000612e38602783612561565b9150612e4382612ddc565b604082019050919050565b60006020820190508181036000830152612e6781612e2b565b9050919050565b7f4e65656420746f206d616b6520612076616c6964206265740000000000000000600082015250565b6000612ea4601883612561565b9150612eaf82612e6e565b602082019050919050565b60006020820190508181036000830152612ed381612e97565b9050919050565b7f5573657220686173206e6f74206265656e20726567697374657265642077697460008201527f682074686520636173696e6f0000000000000000000000000000000000000000602082015250565b6000612f36602c83612561565b9150612f4182612eda565b604082019050919050565b60006020820190508181036000830152612f6581612f29565b9050919050565b600081519050919050565b6000819050602082019050919050565b6000602082019050919050565b6000612f9f82612f6c565b612fa98185612ac5565b9350612fb483612f77565b8060005b83811015612fe5578151612fcc8882612afa565b9750612fd783612f87565b925050600181019050612fb8565b5085935050505092915050565b600060a0820190506130076000830188612251565b81810360208301526130198187612f94565b90506130286040830186612251565b6130356060830185612251565b6130426080830184612260565b9695505050505050565b6130558161244e565b82525050565b61306481612484565b82525050565b600060808201905061307f600083018761304c565b61308c602083018661305b565b613099604083018561304c565b6130a6606083018461304c565b95945050505050565b7f4f6e6c792074686520446170702063616e20726567697374657220612075736560008201527f7200000000000000000000000000000000000000000000000000000000000000602082015250565b600061310b602183612561565b9150613116826130af565b604082019050919050565b6000602082019050818103600083015261313a816130fe565b9050919050565b7f5265717565737420776173206e6f7420666f756e640000000000000000000000600082015250565b6000613177601583612561565b915061318282613141565b602082019050919050565b600060208201905081810360008301526131a68161316a565b9050919050565b7f4e487b7100000000000000000000000000000000000000000000000000000000600052601260045260246000fd5b60006131e782611fe0565b91506131f283611fe0565b925082613202576132016131ad565b5b828206905092915050565b600061321882611fe0565b915061322383611fe0565b9250817fffffffffffffffffffffffffffffffffffffffffffffffffffffffffffffffff048311821515161561325c5761325b61260d565b5b828202905092915050565b600061327282611fe0565b915061327d83611fe0565b92508261328d5761328c6131ad565b5b828204905092915050565b7f546865207573657220646964206e6f742077696e20616e79206d6f6e65790000600082015250565b60006132ce601e83612561565b91506132d982613298565b602082019050919050565b600060208201905081810360008301526132fd816132c1565b9050919050565b7f436173696e6f20646f6573206e6f74206861766520656e6f7567682066756e6460008201527f7320746f2072657761726420757365722061667465722073756363657373667560208201527f6c20626574000000000000000000000000000000000000000000000000000000604082015250565b6000613386604583612561565b915061339182613304565b606082019050919050565b600060208201905081810360008301526133b581613379565b9050919050565b7f436173696e6f206661696c656420746f2073656e642045746865720000000000600082015250565b60006133f2601b83612561565b91506133fd826133bc565b602082019050919050565b60006020820190508181036000830152613421816133e5565b9050919050565b600061343382611fe0565b915061343e83611fe0565b9250827fffffffffffffffffffffffffffffffffffffffffffffffffffffffffffffffff038211156134735761347261260d565b5b82820190509291505056fea2646970667358221220a201622786f694f55d2cc98c50aee288f5e5ab3214454cd0e87d26f7a36129e864736f6c634300080b0033",
  "immutableReferences": {
    "2306": [
      {
        "length": 32,
        "start": 1118
      },
      {
        "length": 32,
        "start": 1202
      }
    ]
  },
  "source": "// SPDX-License-Identifier: UNLICENSED\npragma solidity ^0.8.11;\n\nimport './SafeMath.sol';\nimport \"../node_modules/@chainlink/contracts/src/v0.8/interfaces/VRFCoordinatorV2Interface.sol\";\nimport \"../node_modules/@chainlink/contracts/src/v0.8/VRFConsumerBaseV2.sol\";\n\ncontract RouletteMock is VRFConsumerBaseV2{\n    \n    address public casinoAddress; //only this address can acept and end games\n    \n    /// @dev Min value user needs to deposit for creating game session.\n    uint128 public minStake;\n\n    /// @dev Max value user can deposit for creating game session.\n    uint128 public maxStake;\n\n    uint256 public gameId;\n\n    address payable[] public approvedAddresses;\n\n    uint64 subscriptionId = 1215;\n    bytes32 constant keyHash = 0x474e34a077df58807dbe9c96d3c009b23b3c6d0cce433e59bbf5b34f823bc56c; //keyhash\n    VRFCoordinatorV2Interface COORDINATOR;\n\n    uint32 constant callbackGasLimit = 1 * 10 ** 6;// how much gas they are willing to spend for you (cus they call function in your smart contract to send you the result)\n    uint32 constant numWords = 1; //number of random numbers generated\n    uint16 constant requestConfirmations = 3; //how many blocks need to be confirmed (So there can be no manipulations)\n\n    mapping (uint256 => Game) public Games;\n    mapping (uint256 => LinkRequest) public LinkRequests;\n\n    constructor () \n    VRFConsumerBaseV2(0x8103B0A8A00be2DDC778e6e7eaa21791Cd364625)\n    {\n        COORDINATOR = VRFCoordinatorV2Interface(0x8103B0A8A00be2DDC778e6e7eaa21791Cd364625);\n        casinoAddress = payable(msg.sender);\n        gameId = 0;\n\n        minStake = 1 * 10 ** 13; //0.00001 ETH (0.01862 USD as of 8 April)\n        maxStake = 1 * 10 ** 18; //equivalent to 1 eth (1,862 USD as of 8 April)\n    }\n\n    struct LinkRequest {\n        uint256 requestId;\n        bool exists;\n        bool requestFulfilled;\n        uint256 randomWord;\n    }\n    struct Game {\n        uint256 gameId;\n        uint256[] bet;\n        uint256 betAmount;\n        address payable user;\n        bool win;\n        uint256 winnings;\n        bool gameDone;\n        uint256 requestId;\n        uint256 gameResult;\n    }\n    //may wantr to use indexed for gameFinished\n    event BetPlaced(uint256 gameId, uint256[] betPlaced, uint256 requestId, uint256 betValue, address payable user);\n    event RequestSent(uint256 indexed requestId);\n    event RequestStored(uint256 indexed requestId, uint256 indexed randomWords);\n    event GameFinished(uint256 indexed id, uint256[] bet, uint256 betAmount, address payable indexed user, bool indexed win, uint256 winnings);\n    event Recieved(address indexed depositor,uint256 indexed amount);\n    event Withdrawn(address indexed casino, uint256 indexed amount);\n    event OwnershipTransferredSuccessfully(address indexed previousOwner, address indexed newOwner);\n    event RegisterUser(address indexed user);\n\n    function placeBet(uint256[] memory _numbersSelected) public payable onlyValidUserStake(msg.value) onlyRegistered(msg.sender) onlyValidHouseFunds(msg.value){\n        //should freeze any more functionality instantly actually (like dont let the user button spam)\n        require (msg.sender.balance > msg.value, \"Not enough money in wallet to place bet\");\n        require (_numbersSelected.length < 7 && _numbersSelected.length > 0 || _numbersSelected.length == 12 || _numbersSelected.length == 18, \"Need to make a valid bet\");\n        require (verifyUser(msg.sender), \"User has not been registered with the casino\");\n\n        // This line has also been added since normally the coordinator would return a request ID. The original line is below\n        // uint256 requestId = COORDINATOR.requestRandomWords(keyHash, subscriptionId, requestConfirmations, callbackGasLimit, numWords); //will revert if subscription is not set and funded\n        uint256 requestId = SafeMath.add(gameId, 1); \n        LinkRequests[requestId] = LinkRequest(requestId, true, false, 0);\n        emit RequestSent(requestId);\n        \n        gameId = SafeMath.add(gameId, 1);\n        Games[gameId] = Game(gameId, _numbersSelected, msg.value, payable(msg.sender), false, 0, false, requestId, 0);\n        emit BetPlaced(gameId, _numbersSelected, requestId, msg.value, payable (msg.sender));\n\n        // This part has been added, normally would call the coordinator function and allow that to call the fulfillRandomWords function and the next 3 lines are not in the contract\n        uint[] memory randomWordsMock = new uint[](1);\n        randomWordsMock[0] = uint (39);\n        fulfillRandomWords(gameId, randomWordsMock);\n    }\n\n    function fulfillRandomWords(uint256 _requestId, uint256[] memory _randomWords) internal override {\n        require (LinkRequests[_requestId].exists, \"Request was not found\"); //checks whether a request has actually been made\n        LinkRequests[_requestId].randomWord = _randomWords[0];\n        LinkRequests[_requestId].requestFulfilled = true;\n        emit RequestStored(_requestId, LinkRequests[_requestId].randomWord);\n    }\n\n    function endGame(uint256 _gameId) public {\n        require (Games[_gameId].gameDone == false, \"Game has already been finished.\");\n        require (Games[_gameId].gameId != 0, \"Game does not exist.\");\n        require (LinkRequests[Games[_gameId].requestId].requestFulfilled == true, \"Random number has not yet been generated, try again after a short wait.\");\n        uint256 result = SafeMath.mod(LinkRequests[Games[_gameId].requestId].randomWord, 38); //This line extracts the randomly generated number that has been stored by the request struct\n\n        bool won = checkResult(result, Games[_gameId].bet);\n        if (won == true) {//Means that the user placed their bet successfully\n            uint256 payout = calculatePayout(Games[_gameId].bet.length);\n            payout = SafeMath.div(SafeMath.mul(payout, Games[_gameId].betAmount), 10);\n\n            safeTransferWinnings(payable (Games[_gameId].user), payout);\n\n            Games[_gameId].win = true;\n            Games[_gameId].winnings = SafeMath.sub(payout, Games[_gameId].betAmount);\n        } else {\n        }\n        Games[_gameId].gameDone = true;\n        Games[_gameId].gameResult = result;\n        emit GameFinished(_gameId, Games[_gameId].bet, Games[_gameId].betAmount, Games[_gameId].user, Games[_gameId].win, Games[_gameId].winnings);\n    }\n\n    function checkResult (uint256 _result, uint256[] memory _numbersSelected) private pure returns (bool) {\n        for (uint256 i = 0; i< 38 && i < _numbersSelected.length ; i++) {\n            if (_numbersSelected[i] == _result) {\n                return true;\n            }\n        }\n        return false; \n    }\n\n    function calculatePayout(uint256 _amountOfNumbersSelected) private pure returns (uint256) {\n        //All the payouts are multiplied by ten so that the odds 1.5 can be returned (solidity cannot handle floating point numbers)\n        //The payout is later divided by ten after being multiplide with the user's bet\n        //Odds are dependent on the amount of numbers selected not which ones. \n        if (_amountOfNumbersSelected == 18) {\n            //If red/black/odd/even numbers are bet on (payout is 1:1)\n            return 20;\n        } else if (_amountOfNumbersSelected == 12) {\n            //If the 1st/2nd/3rd dozen or the 1st/2nd/3rd column is bet on (payuout is 2:1)\n            return 15;\n        } else if (_amountOfNumbersSelected < 7 && _amountOfNumbersSelected > 0) {\n            // When selecting individual numbers up to 6 can be selected with the odds being (36/# numbers selected) - 1    \n            uint256 payout = SafeMath.div(36, _amountOfNumbersSelected);\n            payout = SafeMath.sub(payout, 1);\n            return SafeMath.mul(payout, 10);\n        }\n        return 0;\n    }\n\n    //Sends money from the casino to the user\n    function safeTransferWinnings(address payable _userAddress, uint256 _userPayout) private {\n        require (_userPayout > 0, \"The user did not win any money\");\n        require (casinoAddress.balance > _userPayout, \"Casino does not have enough funds to reward user after successful bet\");\n        (bool sent,) = _userAddress.call{value: _userPayout}(\"\");\n        require(sent, \"Casino failed to send Ether\");\n        }\n\n    function addFunds() public payable {\n        emit Recieved(msg.sender, msg.value);\n        //If users pay to the wrong function, consider it a donation.\n    }\n\n    function withdrawFundsWei(uint256 _withdrawAmount) public onlyCasino {\n        require (_withdrawAmount <= address(this).balance, \"Attempting to withdraw more funds than casino has available\");\n        (bool sent,) = casinoAddress.call{value: _withdrawAmount}(\"\");\n        require(sent, \"Failed to withdraw ether\");\n\n        emit Withdrawn(msg.sender, _withdrawAmount);\n    }\n    \n    function withdrawAllFunds() public onlyCasino {\n        require (0 < address(this).balance, \"Casino has no funds to withdraw\");\n        uint _withdrawAmount = address(this).balance;\n        (bool sent,) = casinoAddress.call{value: address(this).balance}(\"\");\n        require(sent, \"Failed to withdraw ether\");\n        emit Withdrawn(msg.sender, _withdrawAmount);\n    }\n\n    function registerUser(address payable _address, bytes32 _messageHash, uint8 _v, bytes32 _r, bytes32 _s) public onlyDapp(_messageHash, _v, _r, _s) {\n        approvedAddresses.push(_address);\n        emit RegisterUser(_address);\n    }\n\n    function unregisterUser(address payable _address) public onlyCasino {\n        for (uint i; i < approvedAddresses.length; i++) {\n            if (_address == approvedAddresses[i]) {\n                approvedAddresses[i] = approvedAddresses[approvedAddresses.length - 1];\n                approvedAddresses.pop();\n                //no break in case there are multiple instances of a single address\n            }\n        }\n    }\n\n    function verifyUser(address _address) private view returns (bool) {\n        for (uint i; i < approvedAddresses.length; i++) {\n            if (_address == approvedAddresses[i]) {\n                return true;\n            }\n        }\n        return false;\n    }\n\n    function getApprovedUsers() public view returns( address payable[] memory) {\n        return approvedAddresses;\n    }\n\n    function changeOwner(address payable _newOwner) public onlyCasino {\n        require(_newOwner != address(0), \"Need to transfer ownership to a valid address\");\n        emit OwnershipTransferredSuccessfully(casinoAddress, _newOwner);\n        casinoAddress = _newOwner;\n    }\n\n    modifier onlyDapp(bytes32 _messageHash, uint8 _v, bytes32 _r, bytes32 _s) {\n    address recoveredAddress = ecrecover(_messageHash, _v, _r, _s);\n    require(recoveredAddress == casinoAddress, \"Only the Dapp can register a user\");\n        _;\n    }\n\n    modifier onlyValidHouseFunds (uint256 _userBet) {\n        require (SafeMath.mul(_userBet, 100) <= address(this).balance, \"Casino does not have enough funds\");\n        _;\n    }\n\n    modifier onlyRegistered(address _address) {\n        require (verifyUser(_address) == true, \"User is not verified\");\n        _;\n    }\n\n    modifier onlyValidUserStake (uint256 _userBet) {\n        require (_userBet >= minStake, \"Stake is below the minimum stake\");\n        require (_userBet <= maxStake, \"Stake is above the maximum stake\");\n        _;\n    }\n\n    modifier onlyCasino() {\n        require(msg.sender == casinoAddress, \"Address is not the casino\");\n        _;\n    }\n    \n}",
  "sourcePath": "/Users/jeroenmijer/Uni y3/roulette-dapp/blockchain-truffle/contracts/RouletteMock.sol",
  "compiler": {
    "name": "solc",
    "version": "0.8.11+commit.d7f03943.Emscripten.clang"
  },
  "schemaVersion": "3.4.13",
  "updatedAt": "2023-05-15T20:38:26.736Z",
  "networkType": "ethereum",
  "devdoc": {
    "kind": "dev",
    "methods": {},
    "stateVariables": {
      "maxStake": {
        "details": "Max value user can deposit for creating game session."
      },
      "minStake": {
        "details": "Min value user needs to deposit for creating game session."
      }
    },
    "version": 1
  },
  "userdoc": {
    "kind": "user",
    "methods": {},
    "version": 1
  }
}